{
	"data": {
		"bytecode": {
			"linkReferences": {},
			"object": "610140346200024957601f6200383938819003918201601f19168301916001600160401b03918284118585101762000233578160c09286926040968752833981010312620002495781519060c08201908111828210176200023357825262000067836200024e565b80825262000078602085016200024e565b9360208301928584526200008e8583016200024e565b9385820191858352620000a4606085016200024e565b97606082019589875260a06080870151966080850197885201519960a084019a8b5260018060a01b0398898093161593841562000227575b5083156200021b575b5082156200020f575b5050620001e757835115801562000205575b620001e757858151163b158015620001f8575b620001e75751851660a05251841660805251831660c0525160e05251166101009081529151610120908152600019600055600180546001600160a01b0319168117905590516135d59290919083620002648439608051838181611bd601528181611d8f01528181611df90152611e69015260a051838181610dc601528181610ec001528181611a7001528181611fe60152612a00015260c05183818161137c015281816117570152612edd015260e05183818161135b015281816117360152612ebc015251826133cb015251816133a90152f35b865163af68366360e01b8152600490fd5b50858251163b1562000113565b5087511562000100565b161590508638620000ee565b821615925038620000e5565b831615935038620000dc565b634e487b7160e01b600052604160045260246000fd5b600080fd5b51906001600160a01b0382168203620002495756fe604060c0815260048036101561001f575b5050361561001d57600080fd5b005b600091823560e01c806324856bc3146103fe5780633593564c146102c35763fa461e331461004d5750610010565b346102bf5760607ffffffffffffffffffffffffffffffffffffffffffffffffffffffffffffffffc3601126102bf57813590602435926044359067ffffffffffffffff918281116102bb576100a590369083016104c5565b919092878613908115806102b1575b610289578385018686820312610285578535918211610285576100d89186016127b3565b5060208401359373ffffffffffffffffffffffffffffffffffffffff938486168096036102855761010891613126565b959097602b891061025d5786359260178460601c98019561013762ffffff883560601c9660481c16868b613314565b33911603610235571561022b57508186105b15610161575050505061015e93503391612acc565b80f35b939594509192909190604287106101e557505050836017116101e1577f80000000000000000000000000000000000000000000000000000000000000008210156101e1577fffffffffffffffffffffffffffffffffffffffffffffffffffffffffffffffe96101db9401916101d63391613164565b613191565b50505080f35b8480fd5b919695509293915084548411610203575061015e9394503391612acc565b8590517f739dbe52000000000000000000000000000000000000000000000000000000008152fd5b9650858210610149565b8483517f32b13d91000000000000000000000000000000000000000000000000000000008152fd5b8382517f3b99b53d000000000000000000000000000000000000000000000000000000008152fd5b8980fd5b8286517f316cf0eb000000000000000000000000000000000000000000000000000000008152fd5b50888813156100b4565b8680fd5b8280fd5b5060607ffffffffffffffffffffffffffffffffffffffffffffffffffffffffffffffffc3601126102bf5767ffffffffffffffff82358181116101e15761030d90369085016104c5565b916024359081116103fa5761032590369086016104f8565b92909160443542116103d2573330146103c3576001958654958773ffffffffffffffffffffffffffffffffffffffff88160361039d5750509185949391610394937fffffffffffffffffffffffff00000000000000000000000000000000000000009586339116178755610587565b81541617905580f35b517f6f5ffb7e000000000000000000000000000000000000000000000000000000008152fd5b909192935061015e9450610587565b8585517f5bf6f916000000000000000000000000000000000000000000000000000000008152fd5b8580fd5b50807ffffffffffffffffffffffffffffffffffffffffffffffffffffffffffffffffc3601126102bf5767ffffffffffffffff82358181116101e15761044790369085016104c5565b916024359081116103fa5761045f90369086016104f8565b9290913330146103c3576001958654958773ffffffffffffffffffffffffffffffffffffffff88160361039d5750509185949391610394937fffffffffffffffffffffffff00000000000000000000000000000000000000009586339116178755610587565b9181601f840112156104f35782359167ffffffffffffffff83116104f357602083818601950101116104f357565b600080fd5b9181601f840112156104f35782359167ffffffffffffffff83116104f3576020808501948460051b0101116104f357565b919082519283825260005b8481106105735750507fffffffffffffffffffffffffffffffffffffffffffffffffffffffffffffffe0601f8460006020809697860101520116010190565b602081830181015184830182015201610534565b9392918160805260a05281036125df579160005b6080518110156125d957838110156125aa5760a051917fffffffffffffffffffffffffffffffffffffffffffffffffffffffffffffffe1833603018260051b84013512156104f3578160051b8301358301803567ffffffffffffffff81116104f35760209036039101136104f3576060927f40000000000000000000000000000000000000000000000000000000000000008383013516612580576001908284013560f81c603f1660208110156123275760108110156122f6576008808210156112a4575080610afe575061067f8460051b82013560a05101602081359101613147565b90978560051b83013560a051019760a0890135600014610af75773ffffffffffffffffffffffffffffffffffffffff60015416995b60406106c360208c013561287c565b9a01359084819c917f80000000000000000000000000000000000000000000000000000000000000008414610a3d575b50949b9450905b7f80000000000000000000000000000000000000000000000000000000000000008110156104f35760428510610a3757305b85602b116104f3578c90601782013560601c9262ffffff8335958660601c9661077173ffffffffffffffffffffffffffffffffffffffff93849260481c16888a613314565b169286881015610a1b57826401000276a4925b602b60405198604060208b01528160608b015260808a0137600060ab89015216604087015260a086528560c081011067ffffffffffffffff60c0880111176109ec578260409560c0880187527f128acb080000000000000000000000000000000000000000000000000000000060c08901521660c487015286881060e48701526101048601521661012484015260a061014484015260c08301907fffffffffffffffffffffffffffffffffffffffffffffffffffffffffffffff408461084e610164820182610529565b030190600060c08601915af19182156109e0576000918293610998575b5061087c9310156109915750613164565b604284106108be57309a846017116104f3576017019a7fffffffffffffffffffffffffffffffffffffffffffffffffffffffffffffffe99490940193906106fa565b9197959950975060609150918560051b013560a05101013511610967575b158061093a575b6108f3575060010192909261059b565b9061093660409283519384937f2c4029e9000000000000000000000000000000000000000000000000000000008552600485015260248401526044830190610529565b0390fd5b507f80000000000000000000000000000000000000000000000000000000000000008286013516156108e3565b60046040517f39d35496000000000000000000000000000000000000000000000000000000008152fd5b9050613164565b9250906040833d6040116109d8575b816109b760409360c08401612694565b810103126109d5575060c082015160e090920151919061087c61086b565b80fd5b3d91506109a7565b6040513d6000823e3d90fd5b7f4e487b7100000000000000000000000000000000000000000000000000000000600052604160045260246000fd5b8273fffd8963efd1fc6a506488495d951d5263988d2592610784565b8a61072c565b60149192935010610acd576020602491604051928380927f70a082310000000000000000000000000000000000000000000000000000000082523060048301523560601c5afa9081156109e057600091610a9b575b509038806106f3565b906020823d602011610ac5575b81610ab560209383612694565b810103126109d557505138610a92565b3d9150610aa8565b60046040517f3b99b53d000000000000000000000000000000000000000000000000000000008152fd5b30996106b4565b9296949260018103610c2b57508360051b81013560a05101604091610b2c8383013592602081359101613147565b90918760051b013560a051019160a0830135600014610c245773ffffffffffffffffffffffffffffffffffffffff60015416915b6060610b6f602086013561287c565b9401356000557f80000000000000000000000000000000000000000000000000000000000000008510156104f357610baa936101d686613164565b90919015610c155750610bbc90613164565b03610bec57507fffffffffffffffffffffffffffffffffffffffffffffffffffffffffffffffff6000555b6108dc565b600490517fd4e0248e000000000000000000000000000000000000000000000000000000008152fd5b610c1f9150613164565b610bbc565b3091610b60565b60028103610c7a5750610be79073ffffffffffffffffffffffffffffffffffffffff60015416908560051b013560a0510190610c6a604083013561287c565b90602060608401359301356129e5565b60038103610f8557508360051b81013560a051019081358201906040838303126104f357602083013567ffffffffffffffff81116104f35760608185018403126104f35760405193610ccb85612678565b6020828201013567ffffffffffffffff81116104f3578282010160208501603f820112156104f3576020810135610d018161270f565b91610d0f6040519384612694565b81835260208301906020880160408460071b830101116104f35760408101915b60408460071b8301018310610f69575050505090606092918652610d57604083830101612727565b602087015201013560408401528560051b013560a0510160408101359167ffffffffffffffff83116104f357610d949260208092019201016127b3565b5073ffffffffffffffffffffffffffffffffffffffff600154169073ffffffffffffffffffffffffffffffffffffffff7f0000000000000000000000000000000000000000000000000000000000000000163b156104f357604051917f2a2d80d10000000000000000000000000000000000000000000000000000000083526004830152606060248301528160c48101825190606060648401528151809152602060e484019201906000905b808210610f025750505060209060408473ffffffffffffffffffffffffffffffffffffffff846000970151166084860152015160a484015283838203917ffffffffffffffffffffffffffffffffffffffffffffffffffffffffffffffffc830160448601525201818373ffffffffffffffffffffffffffffffffffffffff7f0000000000000000000000000000000000000000000000000000000000000000165af180156109e057610ef3575b506108dc565b610efc90612664565b38610eed565b91949350916020608082610f5a600194895160609073ffffffffffffffffffffffffffffffffffffffff80825116845260208201511660208401528165ffffffffffff91826040820151166040860152015116910152565b01950192018593949291610e40565b6020608091610f7a828c018661275b565b815201920191610d2f565b600491908281036110f157508460051b013560a0510190606082013590604073ffffffffffffffffffffffffffffffffffffffff6020610fc78387013561287c565b950135168061101e575047928310610ff857505080610fe8575b50506108dc565b610ff191613480565b3880610fe1565b517f6a12f104000000000000000000000000000000000000000000000000000000008152fd5b9391908051937f70a082310000000000000000000000000000000000000000000000000000000085523083860152602085602481895afa9485156110e6576000956110b2575b50841061108c5750508161107b575b5050506108dc565b611084926134ee565b388080611073565b517f675cae38000000000000000000000000000000000000000000000000000000008152fd5b90946020823d6020116110de575b816110cd60209383612694565b810103126109d55750519338611064565b3d91506110c0565b82513d6000823e3d90fd5b600581036111255750610be791508460051b013560a05101611116604082013561287c565b602060608301359201356128b8565b6006810361127457508460051b81013560a0510160608101359061114d60408092013561287c565b9282158015611269575b61124157602073ffffffffffffffffffffffffffffffffffffffff918960051b013560a051010135169384156000146111a5575050610be7925061119e6127109147612999565b0490613480565b8151907f70a082310000000000000000000000000000000000000000000000000000000082523090820152602081602481885afa9182156112375750600091611203575b506111fc610be794939261271092612999565b04916134ee565b906020823d60201161122f575b8161121d60209383612694565b810103126109d55750516111fc6111e9565b3d9150611210565b513d6000823e3d90fd5b8482517fdeaa01e6000000000000000000000000000000000000000000000000000000008152fd5b506127108311611157565b82602491604051917fd76a1e9e000000000000000000000000000000000000000000000000000000008352820152fd5b93979593810361158657508360051b81013560a05101906040906112dd6112d48385013594602081359101613147565b908101906127fa565b908660051b81013560a051019060a082013560001461157a5761131d602073ffffffffffffffffffffffffffffffffffffffff60015416935b013561287c565b9473ffffffffffffffffffffffffffffffffffffffff926113a06113588561134488612a8e565b51168661135089612a9b565b511690612c3e565b907f00000000000000000000000000000000000000000000000000000000000000007f0000000000000000000000000000000000000000000000000000000000000000612b36565b91828161155d575b50505083517fffffffffffffffffffffffffffffffffffffffffffffffffffffffffffffffff810190811161152e576113e2849186612aab565b5116938551937f70a082310000000000000000000000000000000000000000000000000000000090818652881692600498848a88015260249360208886818c5afa978815611523576000986114ed575b509161144391602096959493612cb7565b8751968793849283528a8301525afa9283156114e2576000936114ad575b5090606061147b928960051b013560a05101013592612abf565b106114875750506108dc565b517f849eaf98000000000000000000000000000000000000000000000000000000008152fd5b90926020823d6020116114da575b816114c860209383612694565b810103126109d5575051916060611461565b3d91506114bb565b84513d6000823e3d90fd5b90976020823d60201161151b575b8161150860209383612694565b810103126109d557505196611443611432565b3d91506114fb565b8a513d6000823e3d90fd5b7f4e487b7100000000000000000000000000000000000000000000000000000000600052601160045260246000fd5b611572928661156b89612a8e565b5116612acc565b3880826113a8565b61131d60203093611316565b600981036119a057506115ab6112d48560051b83013560a05101602081359101613147565b8460051b82013560a051019060a0820135600014611994576115e9602073ffffffffffffffffffffffffffffffffffffffff6001541693013561287c565b90600092600282511061196a5760408860051b86013560a051010135948251807fffffffffffffffffffffffffffffffffffffffffffffffffffffffffffffffff81011161152e577fffffffffffffffffffffffffffffffffffffffffffffffffffffffffffffffff01805b6116c557506060908960051b013560a051010135851161169b57610be794846116969273ffffffffffffffffffffffffffffffffffffffff61156b86612a8e565b612cb7565b60046040517f8ab0bc16000000000000000000000000000000000000000000000000000000008152fd5b9594507fffffffffffffffffffffffffffffffffffffffffffffffffffffffffffffffff860186811161152e5761177b956117189173ffffffffffffffffffffffffffffffffffffffff92839187612aab565b511690611731836117298b89612aab565b511683612c3e565b8199917f00000000000000000000000000000000000000000000000000000000000000007f0000000000000000000000000000000000000000000000000000000000000000612b36565b91604051907f0902f1ac00000000000000000000000000000000000000000000000000000000825260049460608387818489165afa9283156109e0576000908194611936575b506dffffffffffffffffffffffffffff80911693169a16146000146119305797915b9780158015611928575b6118ff57816117fb91612999565b916103e8928381029381850414901517156118d1579061181a91612abf565b906103e5918281029281840414901517156118a35790611839916129ac565b9060018201809211611875575095801561152e577fffffffffffffffffffffffffffffffffffffffffffffffffffffffffffffffff0180611655565b6011907f4e487b71000000000000000000000000000000000000000000000000000000006000525260246000fd5b6011837f4e487b71000000000000000000000000000000000000000000000000000000006000525260246000fd5b6011847f4e487b71000000000000000000000000000000000000000000000000000000006000525260246000fd5b836040517f7b9c8916000000000000000000000000000000000000000000000000000000008152fd5b5082156117ed565b916117e3565b905061195a91935060603d8111611963575b6119528183612694565b810190612c81565b509290386117c1565b503d611948565b60046040517f20db8267000000000000000000000000000000000000000000000000000000008152fd5b6115e960203093611316565b600a8103611b5d57508360051b81013560a0510180358101906020820191039060e0918281126104f35760c08091126104f3576040928351926119e284612678565b6119f98160208b60051b89013560a051010161275b565b8452611a1060a08a60051b88013581510101612727565b9560208501968752858501938a60051b82013560a05101013584528960051b013560a05101918201359167ffffffffffffffff83116104f357611a5692016020016127b3565b9073ffffffffffffffffffffffffffffffffffffffff92837f000000000000000000000000000000000000000000000000000000000000000016918460015416833b156104f357611b47611b27956000979388948a519b8c998a9889977f2b67b570000000000000000000000000000000000000000000000000000000008952600489015260248801905160609073ffffffffffffffffffffffffffffffffffffffff80825116845260208201511660208401528165ffffffffffff91826040820151166040860152015116910152565b511660a48501525160c484015261010060e4840152610104830190610529565b03925af19081156112375750610ef357506108dc565b600b8103611d2457508360051b013560a051016040611b8360208284013593013561287c565b91807f80000000000000000000000000000000000000000000000000000000000000008103611cf157505047915b82611bbe575050506108dc565b73ffffffffffffffffffffffffffffffffffffffff807f00000000000000000000000000000000000000000000000000000000000000001690813b156104f3578351927fd0e30db000000000000000000000000000000000000000000000000000000000845260049360008186818a885af18015611ce657611cd7575b501690308203611c4d575b5050611073565b6020926000604492865197889586947fa9059cbb00000000000000000000000000000000000000000000000000000000865285015260248401525af19081156112375750611c9f575b80808080611c46565b6020813d602011611ccf575b81611cb860209383612694565b810103126104f35751801515036104f35738611c96565b3d9150611cab565b611ce090612664565b38611c3b565b86513d6000823e3d90fd5b929092471015611bb157600482517f6a12f104000000000000000000000000000000000000000000000000000000008152fd5b600c8103611f2b5750611d4460208560051b83013560a05101013561287c565b90604051907f70a0823100000000000000000000000000000000000000000000000000000000825230600483015260208260248173ffffffffffffffffffffffffffffffffffffffff7f0000000000000000000000000000000000000000000000000000000000000000165afa9182156109e057600092611ef6575b506040908660051b013560a0510101358110611ecc5780611de25750506108dc565b73ffffffffffffffffffffffffffffffffffffffff7f0000000000000000000000000000000000000000000000000000000000000000163b156104f3576040517f2e1a7d4d0000000000000000000000000000000000000000000000000000000081528160048201526000816024818373ffffffffffffffffffffffffffffffffffffffff7f0000000000000000000000000000000000000000000000000000000000000000165af180156109e057611ebd575b5073ffffffffffffffffffffffffffffffffffffffff82163014610fe157610ff191613480565b611ec690612664565b38611e96565b60046040517f6a12f104000000000000000000000000000000000000000000000000000000008152fd5b90916020823d602011611f23575b81611f1160209383612694565b810103126109d5575051906040611dc0565b3d9150611f04565b600d810361218a57508360051b013560a051018035810160208101916020818303126104f35760208101359067ffffffffffffffff82116104f3570182603f820112156104f357602081013590611f818261270f565b93604093611f9185519687612694565b838652602086019285849560071b8201019283116104f3578501925b828410612128575050505073ffffffffffffffffffffffffffffffffffffffff90816001541684519060005b8281106120bc57505050817f00000000000000000000000000000000000000000000000000000000000000001691823b156104f35783517f0d58b1db000000000000000000000000000000000000000000000000000000008152602060048201529451602486018190528592604484019290916000915b81831061207857505050509181600081819503925af19081156112375750610ef357506108dc565b91938395506080602091846060600195975182815116845282868201511686850152828d820151168d85015201511660608201520195019301909187949392612050565b81856120c8838a612aab565b515116036120ff577fffffffffffffffffffffffffffffffffffffffffffffffffffffffffffffffff811461152e57600101611fd9565b600486517fe7002877000000000000000000000000000000000000000000000000000000008152fd5b6080602085840301126104f3576020608091875161214581612648565b61214e87612727565b815261215b838801612727565b8382015261216a898801612727565b8982015261217a60608801612727565b6060820152815201930192611fad565b909150600e81036122f657506040908151907f70a082310000000000000000000000000000000000000000000000000000000082528173ffffffffffffffffffffffffffffffffffffffff9160208284828a60051b85013560a0510101351694600495868301526024968791898c60051b87013560a051010135165afa9182156122eb576000926122b6575b506060908760051b013560a0510101351192831593612237575050506108dc565b80517fa328167200000000000000000000000000000000000000000000000000000000602082015282815293945083810192909167ffffffffffffffff84118585101761228a5750505290388080611073565b6041907f4e487b7100000000000000000000000000000000000000000000000000000000600052526000fd5b90916020823d6020116122e3575b816122d160209383612694565b810103126109d5575051906060612216565b3d91506122c4565b85513d6000823e3d90fd5b602490604051907fd76a1e9e0000000000000000000000000000000000000000000000000000000082526004820152fd5b91969395949291602181036122f657506123508660051b82013560a05101602081359101613126565b6123778860059993991b84013560a051016020806040830135830192830301910135613119565b8260051b84013560a051013510610acd576123ca90604097949751987f24856bc30000000000000000000000000000000000000000000000000000000060208b0152604060248b015260648a0191612609565b7fffffffffffffffffffffffffffffffffffffffffffffffffffffffffffffffdc88820301604489015260208260051b84013560a051016040810135010135815260208101968260051b84013560a05101946040602080828901358901013560051b85010196818101350101906000965b60208660051b88013560a0510160408101350101358810156124fd577fffffffffffffffffffffffffffffffffffffffffffffffffffffffffffffffe0858203018b528560051b87013560a0510160408101350183357fffffffffffffffffffffffffffffffffffffffffffffffffffffffffffffffa1823603018112156104f3570189810191906040013567ffffffffffffffff81116104f35780360383136104f3578e9260209283926124ef92612609565b94019b01970196999161243b565b9150999397985083919a50600095508594506125409250037fffffffffffffffffffffffffffffffffffffffffffffffffffffffffffffffe08101835282612694565b60208151910182305af1903d1561257b57503d61255c816126d5565b9061256a6040519283612694565b81523d6000602083013e5b906108dc565b612575565b60046040517fe68ec04c000000000000000000000000000000000000000000000000000000008152fd5b7f4e487b7100000000000000000000000000000000000000000000000000000000600052603260045260246000fd5b50509050565b60046040517fff633a38000000000000000000000000000000000000000000000000000000008152fd5b601f82602094937fffffffffffffffffffffffffffffffffffffffffffffffffffffffffffffffe0938186528686013760008582860101520116010190565b6080810190811067ffffffffffffffff8211176109ec57604052565b67ffffffffffffffff81116109ec57604052565b6060810190811067ffffffffffffffff8211176109ec57604052565b90601f7fffffffffffffffffffffffffffffffffffffffffffffffffffffffffffffffe0910116810190811067ffffffffffffffff8211176109ec57604052565b67ffffffffffffffff81116109ec57601f017fffffffffffffffffffffffffffffffffffffffffffffffffffffffffffffffe01660200190565b67ffffffffffffffff81116109ec5760051b60200190565b359073ffffffffffffffffffffffffffffffffffffffff821682036104f357565b359065ffffffffffff821682036104f357565b91908260809103126104f35760405161277381612648565b60606127ae81839561278481612727565b855261279260208201612727565b60208601526127a360408201612748565b604086015201612748565b910152565b81601f820112156104f3578035906127ca826126d5565b926127d86040519485612694565b828452602083830101116104f357816000926020809301838601378301015290565b60209081818403126104f35780359067ffffffffffffffff82116104f357019180601f840112156104f35782356128308161270f565b9361283e6040519586612694565b818552838086019260051b8201019283116104f3578301905b828210612865575050505090565b83809161287184612727565b815201910190612857565b73ffffffffffffffffffffffffffffffffffffffff90808216600181036128a65750506001541690565b9091506002036128b557503090565b90565b9092919073ffffffffffffffffffffffffffffffffffffffff16806128e457506128e29192613480565b565b7f80000000000000000000000000000000000000000000000000000000000000008214612917575b926128e292936134ee565b9050604051927f70a08231000000000000000000000000000000000000000000000000000000008452306004850152602084602481855afa9384156109e057600094612966575b50929061290c565b6020813d8211612991575b8161297e60209383612694565b810103126101e1575193506128e261295e565b3d9150612971565b8181029291811591840414171561152e57565b81156129b6570490565b7f4e487b7100000000000000000000000000000000000000000000000000000000600052601260045260246000fd5b919273ffffffffffffffffffffffffffffffffffffffff91827f00000000000000000000000000000000000000000000000000000000000000001693843b156104f35760009484869281608496816040519b8c9a8b997f36c78516000000000000000000000000000000000000000000000000000000008b521660048a01521660248801521660448601521660648401525af180156109e057612a855750565b6128e290612664565b8051156125aa5760200190565b8051600110156125aa5760400190565b80518210156125aa5760209160051b010190565b9190820391821161152e57565b92919073ffffffffffffffffffffffffffffffffffffffff8082163003612af85750506128e2926128b8565b8084959411612b0c576128e29416926129e5565b60046040517fc4bd89a9000000000000000000000000000000000000000000000000000000008152fd5b9173ffffffffffffffffffffffffffffffffffffffff93612c37916040519060208201927fffffffffffffffffffffffffffffffffffffffff000000000000000000000000809260601b16845260601b16603482015260288152612b9981612678565b519020612c0b604051938492602084019687917fffffffffffffffffffffffffffffffffffffffff000000000000000000000000605594927fff00000000000000000000000000000000000000000000000000000000000000855260601b166001840152601583015260358201520190565b037fffffffffffffffffffffffffffffffffffffffffffffffffffffffffffffffe08101835282612694565b5190201690565b73ffffffffffffffffffffffffffffffffffffffff8281169082161015612c625791565b9091565b51906dffffffffffffffffffffffffffff821682036104f357565b908160609103126104f357612c9581612c66565b916040612ca460208401612c66565b92015163ffffffff811681036104f35790565b91909160028151106130ef578051156125aa579073ffffffffffffffffffffffffffffffffffffffff602092612cf68285830151168361135084612a9b565b50938151937ffffffffffffffffffffffffffffffffffffffffffffffffffffffffffffffffe7fffffffffffffffffffffffffffffffffffffffffffffffffffffffffffffffff86019501916000965b868810612d5857505050505050505050565b85612d638987612aab565b5116928680612d7560018c0189612aab565b51169116916040918251957f0902f1ac000000000000000000000000000000000000000000000000000000008752606092600493808986818a5afa988915611ce657908c91600091829b6130c4575b5050911682149787949392916dffffffffffffffffffffffffffff918216911689156130be575b8651958680947f70a082310000000000000000000000000000000000000000000000000000000082528a8883015260249889915afa9283156130b357600093613084575b508083039181159384801561307c575b61305457826103e5808602958604149114171561302757612e609083612999565b926103e8808302928304141715612ffa5791612e858f979695949392612e8b93613119565b906129ac565b9715612ff0578a8a600099965b8b811015612fe35791611350612f019994926002612eb7950190612aab565b8197917f00000000000000000000000000000000000000000000000000000000000000007f0000000000000000000000000000000000000000000000000000000000000000612b36565b955b8451909867ffffffffffffffff9289830184811184821017612fb657875260008352803b156104f3578d9760008a93612f8282968b519c8d97889687957f022c0d9f0000000000000000000000000000000000000000000000000000000087528d8701528d860152166044840152608060648401526084830190610529565b03925af180156114e257612fa2575b505050505060019097019691612d46565b841161228a57505052600138808080612f91565b866041877f4e487b7100000000000000000000000000000000000000000000000000000000600052526000fd5b505050508c946000612f03565b8a8a600096612e98565b856011867f4e487b7100000000000000000000000000000000000000000000000000000000600052526000fd5b866011877f4e487b7100000000000000000000000000000000000000000000000000000000600052526000fd5b8689517f7b9c8916000000000000000000000000000000000000000000000000000000008152fd5b508115612e3f565b90928982813d83116130ac575b61309b8183612694565b810103126109d55750519138612e2f565b503d613091565b87513d6000823e3d90fd5b90612deb565b8a97969594939b506130e29250803d10611963576119528183612694565b5099919293949538612dc4565b60046040517fae52ad0c000000000000000000000000000000000000000000000000000000008152fd5b9190820180921161152e57565b918235830191613140602084359581860195030185613119565b11610acd57565b916060830135830191613140602084359581860195030185613119565b7f8000000000000000000000000000000000000000000000000000000000000000811461152e5760000390565b939193602b8410610acd578462ffffff60006132169461329d6132489935988960601c9a8b9a6131ea601789013560601c9d8e109c73ffffffffffffffffffffffffffffffffffffffff9e8f998a9460481c1691613314565b16968b86146132f9576401000276a49a5b60409d8e9b8c93845196879560208701526060860191612609565b91168b830152037fffffffffffffffffffffffffffffffffffffffffffffffffffffffffffffffe08101835282612694565b848851998a98899788967f128acb080000000000000000000000000000000000000000000000000000000088521660048701528c6024870152604486015216606484015260a0608484015260a4830190610529565b03925af19081156132ee5760009384926132b8575b50509192565b9080949250813d83116132e7575b6132d08183612694565b810103126109d557506020825192015138806132b2565b503d6132c6565b83513d6000823e3d90fd5b73fffd8963efd1fc6a506488495d951d5263988d259a6131fb565b73ffffffffffffffffffffffffffffffffffffffff9283831684831611613478575b62ffffff90846040519481602087019516855216604085015216606083015260608252608082019082821067ffffffffffffffff8311176109ec577fffffffffffffffffffffffffffffffffffffffffffffffffffffffffffffff80612c379183604052845190209361344b60a08201957f0000000000000000000000000000000000000000000000000000000000000000907f000000000000000000000000000000000000000000000000000000000000000088917fffffffffffffffffffffffffffffffffffffffff000000000000000000000000605594927fff00000000000000000000000000000000000000000000000000000000000000855260601b166001840152601583015260358201520190565b037fffffffffffffffffffffffffffffffffffffffffffffffffffffffffffffff60810184520182612694565b909190613336565b600080809381935af11561349057565b60646040517f08c379a000000000000000000000000000000000000000000000000000000000815260206004820152601360248201527f4554485f5452414e534645525f4641494c4544000000000000000000000000006044820152fd5b60009182604492602095604051937fa9059cbb000000000000000000000000000000000000000000000000000000008552600485015260248401525af13d15601f3d116001600051141617161561354157565b60646040517f08c379a000000000000000000000000000000000000000000000000000000000815260206004820152600f60248201527f5452414e534645525f4641494c454400000000000000000000000000000000006044820152fdfea26469706673582212206cf4a60fdc5d1cc8f6b091352295b3eb59aa71c70869c4c7fc64b3c2ceb304ae64736f6c63430008110033",
			"opcodes": "PUSH2 0x140 CALLVALUE PUSH3 0x249 JUMPI PUSH1 0x1F PUSH3 0x3839 CODESIZE DUP2 SWAP1 SUB SWAP2 DUP3 ADD PUSH1 0x1F NOT AND DUP4 ADD SWAP2 PUSH1 0x1 PUSH1 0x1 PUSH1 0x40 SHL SUB SWAP2 DUP3 DUP5 GT DUP6 DUP6 LT OR PUSH3 0x233 JUMPI DUP2 PUSH1 0xC0 SWAP3 DUP7 SWAP3 PUSH1 0x40 SWAP7 DUP8 MSTORE DUP4 CODECOPY DUP2 ADD SUB SLT PUSH3 0x249 JUMPI DUP2 MLOAD SWAP1 PUSH1 0xC0 DUP3 ADD SWAP1 DUP2 GT DUP3 DUP3 LT OR PUSH3 0x233 JUMPI DUP3 MSTORE PUSH3 0x67 DUP4 PUSH3 0x24E JUMP JUMPDEST DUP1 DUP3 MSTORE PUSH3 0x78 PUSH1 0x20 DUP6 ADD PUSH3 0x24E JUMP JUMPDEST SWAP4 PUSH1 0x20 DUP4 ADD SWAP3 DUP6 DUP5 MSTORE PUSH3 0x8E DUP6 DUP4 ADD PUSH3 0x24E JUMP JUMPDEST SWAP4 DUP6 DUP3 ADD SWAP2 DUP6 DUP4 MSTORE PUSH3 0xA4 PUSH1 0x60 DUP6 ADD PUSH3 0x24E JUMP JUMPDEST SWAP8 PUSH1 0x60 DUP3 ADD SWAP6 DUP10 DUP8 MSTORE PUSH1 0xA0 PUSH1 0x80 DUP8 ADD MLOAD SWAP7 PUSH1 0x80 DUP6 ADD SWAP8 DUP9 MSTORE ADD MLOAD SWAP10 PUSH1 0xA0 DUP5 ADD SWAP11 DUP12 MSTORE PUSH1 0x1 DUP1 PUSH1 0xA0 SHL SUB SWAP9 DUP10 DUP1 SWAP4 AND ISZERO SWAP4 DUP5 ISZERO PUSH3 0x227 JUMPI JUMPDEST POP DUP4 ISZERO PUSH3 0x21B JUMPI JUMPDEST POP DUP3 ISZERO PUSH3 0x20F JUMPI JUMPDEST POP POP PUSH3 0x1E7 JUMPI DUP4 MLOAD ISZERO DUP1 ISZERO PUSH3 0x205 JUMPI JUMPDEST PUSH3 0x1E7 JUMPI DUP6 DUP2 MLOAD AND EXTCODESIZE ISZERO DUP1 ISZERO PUSH3 0x1F8 JUMPI JUMPDEST PUSH3 0x1E7 JUMPI MLOAD DUP6 AND PUSH1 0xA0 MSTORE MLOAD DUP5 AND PUSH1 0x80 MSTORE MLOAD DUP4 AND PUSH1 0xC0 MSTORE MLOAD PUSH1 0xE0 MSTORE MLOAD AND PUSH2 0x100 SWAP1 DUP2 MSTORE SWAP2 MLOAD PUSH2 0x120 SWAP1 DUP2 MSTORE PUSH1 0x0 NOT PUSH1 0x0 SSTORE PUSH1 0x1 DUP1 SLOAD PUSH1 0x1 PUSH1 0x1 PUSH1 0xA0 SHL SUB NOT AND DUP2 OR SWAP1 SSTORE SWAP1 MLOAD PUSH2 0x35D5 SWAP3 SWAP1 SWAP2 SWAP1 DUP4 PUSH3 0x264 DUP5 CODECOPY PUSH1 0x80 MLOAD DUP4 DUP2 DUP2 PUSH2 0x1BD6 ADD MSTORE DUP2 DUP2 PUSH2 0x1D8F ADD MSTORE DUP2 DUP2 PUSH2 0x1DF9 ADD MSTORE PUSH2 0x1E69 ADD MSTORE PUSH1 0xA0 MLOAD DUP4 DUP2 DUP2 PUSH2 0xDC6 ADD MSTORE DUP2 DUP2 PUSH2 0xEC0 ADD MSTORE DUP2 DUP2 PUSH2 0x1A70 ADD MSTORE DUP2 DUP2 PUSH2 0x1FE6 ADD MSTORE PUSH2 0x2A00 ADD MSTORE PUSH1 0xC0 MLOAD DUP4 DUP2 DUP2 PUSH2 0x137C ADD MSTORE DUP2 DUP2 PUSH2 0x1757 ADD MSTORE PUSH2 0x2EDD ADD MSTORE PUSH1 0xE0 MLOAD DUP4 DUP2 DUP2 PUSH2 0x135B ADD MSTORE DUP2 DUP2 PUSH2 0x1736 ADD MSTORE PUSH2 0x2EBC ADD MSTORE MLOAD DUP3 PUSH2 0x33CB ADD MSTORE MLOAD DUP2 PUSH2 0x33A9 ADD MSTORE RETURN JUMPDEST DUP7 MLOAD PUSH4 0xAF683663 PUSH1 0xE0 SHL DUP2 MSTORE PUSH1 0x4 SWAP1 REVERT JUMPDEST POP DUP6 DUP3 MLOAD AND EXTCODESIZE ISZERO PUSH3 0x113 JUMP JUMPDEST POP DUP8 MLOAD ISZERO PUSH3 0x100 JUMP JUMPDEST AND ISZERO SWAP1 POP DUP7 CODESIZE PUSH3 0xEE JUMP JUMPDEST DUP3 AND ISZERO SWAP3 POP CODESIZE PUSH3 0xE5 JUMP JUMPDEST DUP4 AND ISZERO SWAP4 POP CODESIZE PUSH3 0xDC JUMP JUMPDEST PUSH4 0x4E487B71 PUSH1 0xE0 SHL PUSH1 0x0 MSTORE PUSH1 0x41 PUSH1 0x4 MSTORE PUSH1 0x24 PUSH1 0x0 REVERT JUMPDEST PUSH1 0x0 DUP1 REVERT JUMPDEST MLOAD SWAP1 PUSH1 0x1 PUSH1 0x1 PUSH1 0xA0 SHL SUB DUP3 AND DUP3 SUB PUSH3 0x249 JUMPI JUMP INVALID PUSH1 0x40 PUSH1 0xC0 DUP2 MSTORE PUSH1 0x4 DUP1 CALLDATASIZE LT ISZERO PUSH2 0x1F JUMPI JUMPDEST POP POP CALLDATASIZE ISZERO PUSH2 0x1D JUMPI PUSH1 0x0 DUP1 REVERT JUMPDEST STOP JUMPDEST PUSH1 0x0 SWAP2 DUP3 CALLDATALOAD PUSH1 0xE0 SHR DUP1 PUSH4 0x24856BC3 EQ PUSH2 0x3FE JUMPI DUP1 PUSH4 0x3593564C EQ PUSH2 0x2C3 JUMPI PUSH4 0xFA461E33 EQ PUSH2 0x4D JUMPI POP PUSH2 0x10 JUMP JUMPDEST CALLVALUE PUSH2 0x2BF JUMPI PUSH1 0x60 PUSH32 0xFFFFFFFFFFFFFFFFFFFFFFFFFFFFFFFFFFFFFFFFFFFFFFFFFFFFFFFFFFFFFFFC CALLDATASIZE ADD SLT PUSH2 0x2BF JUMPI DUP2 CALLDATALOAD SWAP1 PUSH1 0x24 CALLDATALOAD SWAP3 PUSH1 0x44 CALLDATALOAD SWAP1 PUSH8 0xFFFFFFFFFFFFFFFF SWAP2 DUP3 DUP2 GT PUSH2 0x2BB JUMPI PUSH2 0xA5 SWAP1 CALLDATASIZE SWAP1 DUP4 ADD PUSH2 0x4C5 JUMP JUMPDEST SWAP2 SWAP1 SWAP3 DUP8 DUP7 SGT SWAP1 DUP2 ISZERO DUP1 PUSH2 0x2B1 JUMPI JUMPDEST PUSH2 0x289 JUMPI DUP4 DUP6 ADD DUP7 DUP7 DUP3 SUB SLT PUSH2 0x285 JUMPI DUP6 CALLDATALOAD SWAP2 DUP3 GT PUSH2 0x285 JUMPI PUSH2 0xD8 SWAP2 DUP7 ADD PUSH2 0x27B3 JUMP JUMPDEST POP PUSH1 0x20 DUP5 ADD CALLDATALOAD SWAP4 PUSH20 0xFFFFFFFFFFFFFFFFFFFFFFFFFFFFFFFFFFFFFFFF SWAP4 DUP5 DUP7 AND DUP1 SWAP7 SUB PUSH2 0x285 JUMPI PUSH2 0x108 SWAP2 PUSH2 0x3126 JUMP JUMPDEST SWAP6 SWAP1 SWAP8 PUSH1 0x2B DUP10 LT PUSH2 0x25D JUMPI DUP7 CALLDATALOAD SWAP3 PUSH1 0x17 DUP5 PUSH1 0x60 SHR SWAP9 ADD SWAP6 PUSH2 0x137 PUSH3 0xFFFFFF DUP9 CALLDATALOAD PUSH1 0x60 SHR SWAP7 PUSH1 0x48 SHR AND DUP7 DUP12 PUSH2 0x3314 JUMP JUMPDEST CALLER SWAP2 AND SUB PUSH2 0x235 JUMPI ISZERO PUSH2 0x22B JUMPI POP DUP2 DUP7 LT JUMPDEST ISZERO PUSH2 0x161 JUMPI POP POP POP POP PUSH2 0x15E SWAP4 POP CALLER SWAP2 PUSH2 0x2ACC JUMP JUMPDEST DUP1 RETURN JUMPDEST SWAP4 SWAP6 SWAP5 POP SWAP2 SWAP3 SWAP1 SWAP2 SWAP1 PUSH1 0x42 DUP8 LT PUSH2 0x1E5 JUMPI POP POP POP DUP4 PUSH1 0x17 GT PUSH2 0x1E1 JUMPI PUSH32 0x8000000000000000000000000000000000000000000000000000000000000000 DUP3 LT ISZERO PUSH2 0x1E1 JUMPI PUSH32 0xFFFFFFFFFFFFFFFFFFFFFFFFFFFFFFFFFFFFFFFFFFFFFFFFFFFFFFFFFFFFFFE9 PUSH2 0x1DB SWAP5 ADD SWAP2 PUSH2 0x1D6 CALLER SWAP2 PUSH2 0x3164 JUMP JUMPDEST PUSH2 0x3191 JUMP JUMPDEST POP POP POP DUP1 RETURN JUMPDEST DUP5 DUP1 REVERT JUMPDEST SWAP2 SWAP7 SWAP6 POP SWAP3 SWAP4 SWAP2 POP DUP5 SLOAD DUP5 GT PUSH2 0x203 JUMPI POP PUSH2 0x15E SWAP4 SWAP5 POP CALLER SWAP2 PUSH2 0x2ACC JUMP JUMPDEST DUP6 SWAP1 MLOAD PUSH32 0x739DBE5200000000000000000000000000000000000000000000000000000000 DUP2 MSTORE REVERT JUMPDEST SWAP7 POP DUP6 DUP3 LT PUSH2 0x149 JUMP JUMPDEST DUP5 DUP4 MLOAD PUSH32 0x32B13D9100000000000000000000000000000000000000000000000000000000 DUP2 MSTORE REVERT JUMPDEST DUP4 DUP3 MLOAD PUSH32 0x3B99B53D00000000000000000000000000000000000000000000000000000000 DUP2 MSTORE REVERT JUMPDEST DUP10 DUP1 REVERT JUMPDEST DUP3 DUP7 MLOAD PUSH32 0x316CF0EB00000000000000000000000000000000000000000000000000000000 DUP2 MSTORE REVERT JUMPDEST POP DUP9 DUP9 SGT ISZERO PUSH2 0xB4 JUMP JUMPDEST DUP7 DUP1 REVERT JUMPDEST DUP3 DUP1 REVERT JUMPDEST POP PUSH1 0x60 PUSH32 0xFFFFFFFFFFFFFFFFFFFFFFFFFFFFFFFFFFFFFFFFFFFFFFFFFFFFFFFFFFFFFFFC CALLDATASIZE ADD SLT PUSH2 0x2BF JUMPI PUSH8 0xFFFFFFFFFFFFFFFF DUP3 CALLDATALOAD DUP2 DUP2 GT PUSH2 0x1E1 JUMPI PUSH2 0x30D SWAP1 CALLDATASIZE SWAP1 DUP6 ADD PUSH2 0x4C5 JUMP JUMPDEST SWAP2 PUSH1 0x24 CALLDATALOAD SWAP1 DUP2 GT PUSH2 0x3FA JUMPI PUSH2 0x325 SWAP1 CALLDATASIZE SWAP1 DUP7 ADD PUSH2 0x4F8 JUMP JUMPDEST SWAP3 SWAP1 SWAP2 PUSH1 0x44 CALLDATALOAD TIMESTAMP GT PUSH2 0x3D2 JUMPI CALLER ADDRESS EQ PUSH2 0x3C3 JUMPI PUSH1 0x1 SWAP6 DUP7 SLOAD SWAP6 DUP8 PUSH20 0xFFFFFFFFFFFFFFFFFFFFFFFFFFFFFFFFFFFFFFFF DUP9 AND SUB PUSH2 0x39D JUMPI POP POP SWAP2 DUP6 SWAP5 SWAP4 SWAP2 PUSH2 0x394 SWAP4 PUSH32 0xFFFFFFFFFFFFFFFFFFFFFFFF0000000000000000000000000000000000000000 SWAP6 DUP7 CALLER SWAP2 AND OR DUP8 SSTORE PUSH2 0x587 JUMP JUMPDEST DUP2 SLOAD AND OR SWAP1 SSTORE DUP1 RETURN JUMPDEST MLOAD PUSH32 0x6F5FFB7E00000000000000000000000000000000000000000000000000000000 DUP2 MSTORE REVERT JUMPDEST SWAP1 SWAP2 SWAP3 SWAP4 POP PUSH2 0x15E SWAP5 POP PUSH2 0x587 JUMP JUMPDEST DUP6 DUP6 MLOAD PUSH32 0x5BF6F91600000000000000000000000000000000000000000000000000000000 DUP2 MSTORE REVERT JUMPDEST DUP6 DUP1 REVERT JUMPDEST POP DUP1 PUSH32 0xFFFFFFFFFFFFFFFFFFFFFFFFFFFFFFFFFFFFFFFFFFFFFFFFFFFFFFFFFFFFFFFC CALLDATASIZE ADD SLT PUSH2 0x2BF JUMPI PUSH8 0xFFFFFFFFFFFFFFFF DUP3 CALLDATALOAD DUP2 DUP2 GT PUSH2 0x1E1 JUMPI PUSH2 0x447 SWAP1 CALLDATASIZE SWAP1 DUP6 ADD PUSH2 0x4C5 JUMP JUMPDEST SWAP2 PUSH1 0x24 CALLDATALOAD SWAP1 DUP2 GT PUSH2 0x3FA JUMPI PUSH2 0x45F SWAP1 CALLDATASIZE SWAP1 DUP7 ADD PUSH2 0x4F8 JUMP JUMPDEST SWAP3 SWAP1 SWAP2 CALLER ADDRESS EQ PUSH2 0x3C3 JUMPI PUSH1 0x1 SWAP6 DUP7 SLOAD SWAP6 DUP8 PUSH20 0xFFFFFFFFFFFFFFFFFFFFFFFFFFFFFFFFFFFFFFFF DUP9 AND SUB PUSH2 0x39D JUMPI POP POP SWAP2 DUP6 SWAP5 SWAP4 SWAP2 PUSH2 0x394 SWAP4 PUSH32 0xFFFFFFFFFFFFFFFFFFFFFFFF0000000000000000000000000000000000000000 SWAP6 DUP7 CALLER SWAP2 AND OR DUP8 SSTORE PUSH2 0x587 JUMP JUMPDEST SWAP2 DUP2 PUSH1 0x1F DUP5 ADD SLT ISZERO PUSH2 0x4F3 JUMPI DUP3 CALLDATALOAD SWAP2 PUSH8 0xFFFFFFFFFFFFFFFF DUP4 GT PUSH2 0x4F3 JUMPI PUSH1 0x20 DUP4 DUP2 DUP7 ADD SWAP6 ADD ADD GT PUSH2 0x4F3 JUMPI JUMP JUMPDEST PUSH1 0x0 DUP1 REVERT JUMPDEST SWAP2 DUP2 PUSH1 0x1F DUP5 ADD SLT ISZERO PUSH2 0x4F3 JUMPI DUP3 CALLDATALOAD SWAP2 PUSH8 0xFFFFFFFFFFFFFFFF DUP4 GT PUSH2 0x4F3 JUMPI PUSH1 0x20 DUP1 DUP6 ADD SWAP5 DUP5 PUSH1 0x5 SHL ADD ADD GT PUSH2 0x4F3 JUMPI JUMP JUMPDEST SWAP2 SWAP1 DUP3 MLOAD SWAP3 DUP4 DUP3 MSTORE PUSH1 0x0 JUMPDEST DUP5 DUP2 LT PUSH2 0x573 JUMPI POP POP PUSH32 0xFFFFFFFFFFFFFFFFFFFFFFFFFFFFFFFFFFFFFFFFFFFFFFFFFFFFFFFFFFFFFFE0 PUSH1 0x1F DUP5 PUSH1 0x0 PUSH1 0x20 DUP1 SWAP7 SWAP8 DUP7 ADD ADD MSTORE ADD AND ADD ADD SWAP1 JUMP JUMPDEST PUSH1 0x20 DUP2 DUP4 ADD DUP2 ADD MLOAD DUP5 DUP4 ADD DUP3 ADD MSTORE ADD PUSH2 0x534 JUMP JUMPDEST SWAP4 SWAP3 SWAP2 DUP2 PUSH1 0x80 MSTORE PUSH1 0xA0 MSTORE DUP2 SUB PUSH2 0x25DF JUMPI SWAP2 PUSH1 0x0 JUMPDEST PUSH1 0x80 MLOAD DUP2 LT ISZERO PUSH2 0x25D9 JUMPI DUP4 DUP2 LT ISZERO PUSH2 0x25AA JUMPI PUSH1 0xA0 MLOAD SWAP2 PUSH32 0xFFFFFFFFFFFFFFFFFFFFFFFFFFFFFFFFFFFFFFFFFFFFFFFFFFFFFFFFFFFFFFE1 DUP4 CALLDATASIZE SUB ADD DUP3 PUSH1 0x5 SHL DUP5 ADD CALLDATALOAD SLT ISZERO PUSH2 0x4F3 JUMPI DUP2 PUSH1 0x5 SHL DUP4 ADD CALLDATALOAD DUP4 ADD DUP1 CALLDATALOAD PUSH8 0xFFFFFFFFFFFFFFFF DUP2 GT PUSH2 0x4F3 JUMPI PUSH1 0x20 SWAP1 CALLDATASIZE SUB SWAP2 ADD SGT PUSH2 0x4F3 JUMPI PUSH1 0x60 SWAP3 PUSH32 0x4000000000000000000000000000000000000000000000000000000000000000 DUP4 DUP4 ADD CALLDATALOAD AND PUSH2 0x2580 JUMPI PUSH1 0x1 SWAP1 DUP3 DUP5 ADD CALLDATALOAD PUSH1 0xF8 SHR PUSH1 0x3F AND PUSH1 0x20 DUP2 LT ISZERO PUSH2 0x2327 JUMPI PUSH1 0x10 DUP2 LT ISZERO PUSH2 0x22F6 JUMPI PUSH1 0x8 DUP1 DUP3 LT ISZERO PUSH2 0x12A4 JUMPI POP DUP1 PUSH2 0xAFE JUMPI POP PUSH2 0x67F DUP5 PUSH1 0x5 SHL DUP3 ADD CALLDATALOAD PUSH1 0xA0 MLOAD ADD PUSH1 0x20 DUP2 CALLDATALOAD SWAP2 ADD PUSH2 0x3147 JUMP JUMPDEST SWAP1 SWAP8 DUP6 PUSH1 0x5 SHL DUP4 ADD CALLDATALOAD PUSH1 0xA0 MLOAD ADD SWAP8 PUSH1 0xA0 DUP10 ADD CALLDATALOAD PUSH1 0x0 EQ PUSH2 0xAF7 JUMPI PUSH20 0xFFFFFFFFFFFFFFFFFFFFFFFFFFFFFFFFFFFFFFFF PUSH1 0x1 SLOAD AND SWAP10 JUMPDEST PUSH1 0x40 PUSH2 0x6C3 PUSH1 0x20 DUP13 ADD CALLDATALOAD PUSH2 0x287C JUMP JUMPDEST SWAP11 ADD CALLDATALOAD SWAP1 DUP5 DUP2 SWAP13 SWAP2 PUSH32 0x8000000000000000000000000000000000000000000000000000000000000000 DUP5 EQ PUSH2 0xA3D JUMPI JUMPDEST POP SWAP5 SWAP12 SWAP5 POP SWAP1 JUMPDEST PUSH32 0x8000000000000000000000000000000000000000000000000000000000000000 DUP2 LT ISZERO PUSH2 0x4F3 JUMPI PUSH1 0x42 DUP6 LT PUSH2 0xA37 JUMPI ADDRESS JUMPDEST DUP6 PUSH1 0x2B GT PUSH2 0x4F3 JUMPI DUP13 SWAP1 PUSH1 0x17 DUP3 ADD CALLDATALOAD PUSH1 0x60 SHR SWAP3 PUSH3 0xFFFFFF DUP4 CALLDATALOAD SWAP6 DUP7 PUSH1 0x60 SHR SWAP7 PUSH2 0x771 PUSH20 0xFFFFFFFFFFFFFFFFFFFFFFFFFFFFFFFFFFFFFFFF SWAP4 DUP5 SWAP3 PUSH1 0x48 SHR AND DUP9 DUP11 PUSH2 0x3314 JUMP JUMPDEST AND SWAP3 DUP7 DUP9 LT ISZERO PUSH2 0xA1B JUMPI DUP3 PUSH5 0x1000276A4 SWAP3 JUMPDEST PUSH1 0x2B PUSH1 0x40 MLOAD SWAP9 PUSH1 0x40 PUSH1 0x20 DUP12 ADD MSTORE DUP2 PUSH1 0x60 DUP12 ADD MSTORE PUSH1 0x80 DUP11 ADD CALLDATACOPY PUSH1 0x0 PUSH1 0xAB DUP10 ADD MSTORE AND PUSH1 0x40 DUP8 ADD MSTORE PUSH1 0xA0 DUP7 MSTORE DUP6 PUSH1 0xC0 DUP2 ADD LT PUSH8 0xFFFFFFFFFFFFFFFF PUSH1 0xC0 DUP9 ADD GT OR PUSH2 0x9EC JUMPI DUP3 PUSH1 0x40 SWAP6 PUSH1 0xC0 DUP9 ADD DUP8 MSTORE PUSH32 0x128ACB0800000000000000000000000000000000000000000000000000000000 PUSH1 0xC0 DUP10 ADD MSTORE AND PUSH1 0xC4 DUP8 ADD MSTORE DUP7 DUP9 LT PUSH1 0xE4 DUP8 ADD MSTORE PUSH2 0x104 DUP7 ADD MSTORE AND PUSH2 0x124 DUP5 ADD MSTORE PUSH1 0xA0 PUSH2 0x144 DUP5 ADD MSTORE PUSH1 0xC0 DUP4 ADD SWAP1 PUSH32 0xFFFFFFFFFFFFFFFFFFFFFFFFFFFFFFFFFFFFFFFFFFFFFFFFFFFFFFFFFFFFFF40 DUP5 PUSH2 0x84E PUSH2 0x164 DUP3 ADD DUP3 PUSH2 0x529 JUMP JUMPDEST SUB ADD SWAP1 PUSH1 0x0 PUSH1 0xC0 DUP7 ADD SWAP2 GAS CALL SWAP2 DUP3 ISZERO PUSH2 0x9E0 JUMPI PUSH1 0x0 SWAP2 DUP3 SWAP4 PUSH2 0x998 JUMPI JUMPDEST POP PUSH2 0x87C SWAP4 LT ISZERO PUSH2 0x991 JUMPI POP PUSH2 0x3164 JUMP JUMPDEST PUSH1 0x42 DUP5 LT PUSH2 0x8BE JUMPI ADDRESS SWAP11 DUP5 PUSH1 0x17 GT PUSH2 0x4F3 JUMPI PUSH1 0x17 ADD SWAP11 PUSH32 0xFFFFFFFFFFFFFFFFFFFFFFFFFFFFFFFFFFFFFFFFFFFFFFFFFFFFFFFFFFFFFFE9 SWAP5 SWAP1 SWAP5 ADD SWAP4 SWAP1 PUSH2 0x6FA JUMP JUMPDEST SWAP2 SWAP8 SWAP6 SWAP10 POP SWAP8 POP PUSH1 0x60 SWAP2 POP SWAP2 DUP6 PUSH1 0x5 SHL ADD CALLDATALOAD PUSH1 0xA0 MLOAD ADD ADD CALLDATALOAD GT PUSH2 0x967 JUMPI JUMPDEST ISZERO DUP1 PUSH2 0x93A JUMPI JUMPDEST PUSH2 0x8F3 JUMPI POP PUSH1 0x1 ADD SWAP3 SWAP1 SWAP3 PUSH2 0x59B JUMP JUMPDEST SWAP1 PUSH2 0x936 PUSH1 0x40 SWAP3 DUP4 MLOAD SWAP4 DUP5 SWAP4 PUSH32 0x2C4029E900000000000000000000000000000000000000000000000000000000 DUP6 MSTORE PUSH1 0x4 DUP6 ADD MSTORE PUSH1 0x24 DUP5 ADD MSTORE PUSH1 0x44 DUP4 ADD SWAP1 PUSH2 0x529 JUMP JUMPDEST SUB SWAP1 REVERT JUMPDEST POP PUSH32 0x8000000000000000000000000000000000000000000000000000000000000000 DUP3 DUP7 ADD CALLDATALOAD AND ISZERO PUSH2 0x8E3 JUMP JUMPDEST PUSH1 0x4 PUSH1 0x40 MLOAD PUSH32 0x39D3549600000000000000000000000000000000000000000000000000000000 DUP2 MSTORE REVERT JUMPDEST SWAP1 POP PUSH2 0x3164 JUMP JUMPDEST SWAP3 POP SWAP1 PUSH1 0x40 DUP4 RETURNDATASIZE PUSH1 0x40 GT PUSH2 0x9D8 JUMPI JUMPDEST DUP2 PUSH2 0x9B7 PUSH1 0x40 SWAP4 PUSH1 0xC0 DUP5 ADD PUSH2 0x2694 JUMP JUMPDEST DUP2 ADD SUB SLT PUSH2 0x9D5 JUMPI POP PUSH1 0xC0 DUP3 ADD MLOAD PUSH1 0xE0 SWAP1 SWAP3 ADD MLOAD SWAP2 SWAP1 PUSH2 0x87C PUSH2 0x86B JUMP JUMPDEST DUP1 REVERT JUMPDEST RETURNDATASIZE SWAP2 POP PUSH2 0x9A7 JUMP JUMPDEST PUSH1 0x40 MLOAD RETURNDATASIZE PUSH1 0x0 DUP3 RETURNDATACOPY RETURNDATASIZE SWAP1 REVERT JUMPDEST PUSH32 0x4E487B7100000000000000000000000000000000000000000000000000000000 PUSH1 0x0 MSTORE PUSH1 0x41 PUSH1 0x4 MSTORE PUSH1 0x24 PUSH1 0x0 REVERT JUMPDEST DUP3 PUSH20 0xFFFD8963EFD1FC6A506488495D951D5263988D25 SWAP3 PUSH2 0x784 JUMP JUMPDEST DUP11 PUSH2 0x72C JUMP JUMPDEST PUSH1 0x14 SWAP2 SWAP3 SWAP4 POP LT PUSH2 0xACD JUMPI PUSH1 0x20 PUSH1 0x24 SWAP2 PUSH1 0x40 MLOAD SWAP3 DUP4 DUP1 SWAP3 PUSH32 0x70A0823100000000000000000000000000000000000000000000000000000000 DUP3 MSTORE ADDRESS PUSH1 0x4 DUP4 ADD MSTORE CALLDATALOAD PUSH1 0x60 SHR GAS STATICCALL SWAP1 DUP2 ISZERO PUSH2 0x9E0 JUMPI PUSH1 0x0 SWAP2 PUSH2 0xA9B JUMPI JUMPDEST POP SWAP1 CODESIZE DUP1 PUSH2 0x6F3 JUMP JUMPDEST SWAP1 PUSH1 0x20 DUP3 RETURNDATASIZE PUSH1 0x20 GT PUSH2 0xAC5 JUMPI JUMPDEST DUP2 PUSH2 0xAB5 PUSH1 0x20 SWAP4 DUP4 PUSH2 0x2694 JUMP JUMPDEST DUP2 ADD SUB SLT PUSH2 0x9D5 JUMPI POP MLOAD CODESIZE PUSH2 0xA92 JUMP JUMPDEST RETURNDATASIZE SWAP2 POP PUSH2 0xAA8 JUMP JUMPDEST PUSH1 0x4 PUSH1 0x40 MLOAD PUSH32 0x3B99B53D00000000000000000000000000000000000000000000000000000000 DUP2 MSTORE REVERT JUMPDEST ADDRESS SWAP10 PUSH2 0x6B4 JUMP JUMPDEST SWAP3 SWAP7 SWAP5 SWAP3 PUSH1 0x1 DUP2 SUB PUSH2 0xC2B JUMPI POP DUP4 PUSH1 0x5 SHL DUP2 ADD CALLDATALOAD PUSH1 0xA0 MLOAD ADD PUSH1 0x40 SWAP2 PUSH2 0xB2C DUP4 DUP4 ADD CALLDATALOAD SWAP3 PUSH1 0x20 DUP2 CALLDATALOAD SWAP2 ADD PUSH2 0x3147 JUMP JUMPDEST SWAP1 SWAP2 DUP8 PUSH1 0x5 SHL ADD CALLDATALOAD PUSH1 0xA0 MLOAD ADD SWAP2 PUSH1 0xA0 DUP4 ADD CALLDATALOAD PUSH1 0x0 EQ PUSH2 0xC24 JUMPI PUSH20 0xFFFFFFFFFFFFFFFFFFFFFFFFFFFFFFFFFFFFFFFF PUSH1 0x1 SLOAD AND SWAP2 JUMPDEST PUSH1 0x60 PUSH2 0xB6F PUSH1 0x20 DUP7 ADD CALLDATALOAD PUSH2 0x287C JUMP JUMPDEST SWAP5 ADD CALLDATALOAD PUSH1 0x0 SSTORE PUSH32 0x8000000000000000000000000000000000000000000000000000000000000000 DUP6 LT ISZERO PUSH2 0x4F3 JUMPI PUSH2 0xBAA SWAP4 PUSH2 0x1D6 DUP7 PUSH2 0x3164 JUMP JUMPDEST SWAP1 SWAP2 SWAP1 ISZERO PUSH2 0xC15 JUMPI POP PUSH2 0xBBC SWAP1 PUSH2 0x3164 JUMP JUMPDEST SUB PUSH2 0xBEC JUMPI POP PUSH32 0xFFFFFFFFFFFFFFFFFFFFFFFFFFFFFFFFFFFFFFFFFFFFFFFFFFFFFFFFFFFFFFFF PUSH1 0x0 SSTORE JUMPDEST PUSH2 0x8DC JUMP JUMPDEST PUSH1 0x4 SWAP1 MLOAD PUSH32 0xD4E0248E00000000000000000000000000000000000000000000000000000000 DUP2 MSTORE REVERT JUMPDEST PUSH2 0xC1F SWAP2 POP PUSH2 0x3164 JUMP JUMPDEST PUSH2 0xBBC JUMP JUMPDEST ADDRESS SWAP2 PUSH2 0xB60 JUMP JUMPDEST PUSH1 0x2 DUP2 SUB PUSH2 0xC7A JUMPI POP PUSH2 0xBE7 SWAP1 PUSH20 0xFFFFFFFFFFFFFFFFFFFFFFFFFFFFFFFFFFFFFFFF PUSH1 0x1 SLOAD AND SWAP1 DUP6 PUSH1 0x5 SHL ADD CALLDATALOAD PUSH1 0xA0 MLOAD ADD SWAP1 PUSH2 0xC6A PUSH1 0x40 DUP4 ADD CALLDATALOAD PUSH2 0x287C JUMP JUMPDEST SWAP1 PUSH1 0x20 PUSH1 0x60 DUP5 ADD CALLDATALOAD SWAP4 ADD CALLDATALOAD PUSH2 0x29E5 JUMP JUMPDEST PUSH1 0x3 DUP2 SUB PUSH2 0xF85 JUMPI POP DUP4 PUSH1 0x5 SHL DUP2 ADD CALLDATALOAD PUSH1 0xA0 MLOAD ADD SWAP1 DUP2 CALLDATALOAD DUP3 ADD SWAP1 PUSH1 0x40 DUP4 DUP4 SUB SLT PUSH2 0x4F3 JUMPI PUSH1 0x20 DUP4 ADD CALLDATALOAD PUSH8 0xFFFFFFFFFFFFFFFF DUP2 GT PUSH2 0x4F3 JUMPI PUSH1 0x60 DUP2 DUP6 ADD DUP5 SUB SLT PUSH2 0x4F3 JUMPI PUSH1 0x40 MLOAD SWAP4 PUSH2 0xCCB DUP6 PUSH2 0x2678 JUMP JUMPDEST PUSH1 0x20 DUP3 DUP3 ADD ADD CALLDATALOAD PUSH8 0xFFFFFFFFFFFFFFFF DUP2 GT PUSH2 0x4F3 JUMPI DUP3 DUP3 ADD ADD PUSH1 0x20 DUP6 ADD PUSH1 0x3F DUP3 ADD SLT ISZERO PUSH2 0x4F3 JUMPI PUSH1 0x20 DUP2 ADD CALLDATALOAD PUSH2 0xD01 DUP2 PUSH2 0x270F JUMP JUMPDEST SWAP2 PUSH2 0xD0F PUSH1 0x40 MLOAD SWAP4 DUP5 PUSH2 0x2694 JUMP JUMPDEST DUP2 DUP4 MSTORE PUSH1 0x20 DUP4 ADD SWAP1 PUSH1 0x20 DUP9 ADD PUSH1 0x40 DUP5 PUSH1 0x7 SHL DUP4 ADD ADD GT PUSH2 0x4F3 JUMPI PUSH1 0x40 DUP2 ADD SWAP2 JUMPDEST PUSH1 0x40 DUP5 PUSH1 0x7 SHL DUP4 ADD ADD DUP4 LT PUSH2 0xF69 JUMPI POP POP POP POP SWAP1 PUSH1 0x60 SWAP3 SWAP2 DUP7 MSTORE PUSH2 0xD57 PUSH1 0x40 DUP4 DUP4 ADD ADD PUSH2 0x2727 JUMP JUMPDEST PUSH1 0x20 DUP8 ADD MSTORE ADD ADD CALLDATALOAD PUSH1 0x40 DUP5 ADD MSTORE DUP6 PUSH1 0x5 SHL ADD CALLDATALOAD PUSH1 0xA0 MLOAD ADD PUSH1 0x40 DUP2 ADD CALLDATALOAD SWAP2 PUSH8 0xFFFFFFFFFFFFFFFF DUP4 GT PUSH2 0x4F3 JUMPI PUSH2 0xD94 SWAP3 PUSH1 0x20 DUP1 SWAP3 ADD SWAP3 ADD ADD PUSH2 0x27B3 JUMP JUMPDEST POP PUSH20 0xFFFFFFFFFFFFFFFFFFFFFFFFFFFFFFFFFFFFFFFF PUSH1 0x1 SLOAD AND SWAP1 PUSH20 0xFFFFFFFFFFFFFFFFFFFFFFFFFFFFFFFFFFFFFFFF PUSH32 0x0 AND EXTCODESIZE ISZERO PUSH2 0x4F3 JUMPI PUSH1 0x40 MLOAD SWAP2 PUSH32 0x2A2D80D100000000000000000000000000000000000000000000000000000000 DUP4 MSTORE PUSH1 0x4 DUP4 ADD MSTORE PUSH1 0x60 PUSH1 0x24 DUP4 ADD MSTORE DUP2 PUSH1 0xC4 DUP2 ADD DUP3 MLOAD SWAP1 PUSH1 0x60 PUSH1 0x64 DUP5 ADD MSTORE DUP2 MLOAD DUP1 SWAP2 MSTORE PUSH1 0x20 PUSH1 0xE4 DUP5 ADD SWAP3 ADD SWAP1 PUSH1 0x0 SWAP1 JUMPDEST DUP1 DUP3 LT PUSH2 0xF02 JUMPI POP POP POP PUSH1 0x20 SWAP1 PUSH1 0x40 DUP5 PUSH20 0xFFFFFFFFFFFFFFFFFFFFFFFFFFFFFFFFFFFFFFFF DUP5 PUSH1 0x0 SWAP8 ADD MLOAD AND PUSH1 0x84 DUP7 ADD MSTORE ADD MLOAD PUSH1 0xA4 DUP5 ADD MSTORE DUP4 DUP4 DUP3 SUB SWAP2 PUSH32 0xFFFFFFFFFFFFFFFFFFFFFFFFFFFFFFFFFFFFFFFFFFFFFFFFFFFFFFFFFFFFFFFC DUP4 ADD PUSH1 0x44 DUP7 ADD MSTORE MSTORE ADD DUP2 DUP4 PUSH20 0xFFFFFFFFFFFFFFFFFFFFFFFFFFFFFFFFFFFFFFFF PUSH32 0x0 AND GAS CALL DUP1 ISZERO PUSH2 0x9E0 JUMPI PUSH2 0xEF3 JUMPI JUMPDEST POP PUSH2 0x8DC JUMP JUMPDEST PUSH2 0xEFC SWAP1 PUSH2 0x2664 JUMP JUMPDEST CODESIZE PUSH2 0xEED JUMP JUMPDEST SWAP2 SWAP5 SWAP4 POP SWAP2 PUSH1 0x20 PUSH1 0x80 DUP3 PUSH2 0xF5A PUSH1 0x1 SWAP5 DUP10 MLOAD PUSH1 0x60 SWAP1 PUSH20 0xFFFFFFFFFFFFFFFFFFFFFFFFFFFFFFFFFFFFFFFF DUP1 DUP3 MLOAD AND DUP5 MSTORE PUSH1 0x20 DUP3 ADD MLOAD AND PUSH1 0x20 DUP5 ADD MSTORE DUP2 PUSH6 0xFFFFFFFFFFFF SWAP2 DUP3 PUSH1 0x40 DUP3 ADD MLOAD AND PUSH1 0x40 DUP7 ADD MSTORE ADD MLOAD AND SWAP2 ADD MSTORE JUMP JUMPDEST ADD SWAP6 ADD SWAP3 ADD DUP6 SWAP4 SWAP5 SWAP3 SWAP2 PUSH2 0xE40 JUMP JUMPDEST PUSH1 0x20 PUSH1 0x80 SWAP2 PUSH2 0xF7A DUP3 DUP13 ADD DUP7 PUSH2 0x275B JUMP JUMPDEST DUP2 MSTORE ADD SWAP3 ADD SWAP2 PUSH2 0xD2F JUMP JUMPDEST PUSH1 0x4 SWAP2 SWAP1 DUP3 DUP2 SUB PUSH2 0x10F1 JUMPI POP DUP5 PUSH1 0x5 SHL ADD CALLDATALOAD PUSH1 0xA0 MLOAD ADD SWAP1 PUSH1 0x60 DUP3 ADD CALLDATALOAD SWAP1 PUSH1 0x40 PUSH20 0xFFFFFFFFFFFFFFFFFFFFFFFFFFFFFFFFFFFFFFFF PUSH1 0x20 PUSH2 0xFC7 DUP4 DUP8 ADD CALLDATALOAD PUSH2 0x287C JUMP JUMPDEST SWAP6 ADD CALLDATALOAD AND DUP1 PUSH2 0x101E JUMPI POP SELFBALANCE SWAP3 DUP4 LT PUSH2 0xFF8 JUMPI POP POP DUP1 PUSH2 0xFE8 JUMPI JUMPDEST POP POP PUSH2 0x8DC JUMP JUMPDEST PUSH2 0xFF1 SWAP2 PUSH2 0x3480 JUMP JUMPDEST CODESIZE DUP1 PUSH2 0xFE1 JUMP JUMPDEST MLOAD PUSH32 0x6A12F10400000000000000000000000000000000000000000000000000000000 DUP2 MSTORE REVERT JUMPDEST SWAP4 SWAP2 SWAP1 DUP1 MLOAD SWAP4 PUSH32 0x70A0823100000000000000000000000000000000000000000000000000000000 DUP6 MSTORE ADDRESS DUP4 DUP7 ADD MSTORE PUSH1 0x20 DUP6 PUSH1 0x24 DUP2 DUP10 GAS STATICCALL SWAP5 DUP6 ISZERO PUSH2 0x10E6 JUMPI PUSH1 0x0 SWAP6 PUSH2 0x10B2 JUMPI JUMPDEST POP DUP5 LT PUSH2 0x108C JUMPI POP POP DUP2 PUSH2 0x107B JUMPI JUMPDEST POP POP POP PUSH2 0x8DC JUMP JUMPDEST PUSH2 0x1084 SWAP3 PUSH2 0x34EE JUMP JUMPDEST CODESIZE DUP1 DUP1 PUSH2 0x1073 JUMP JUMPDEST MLOAD PUSH32 0x675CAE3800000000000000000000000000000000000000000000000000000000 DUP2 MSTORE REVERT JUMPDEST SWAP1 SWAP5 PUSH1 0x20 DUP3 RETURNDATASIZE PUSH1 0x20 GT PUSH2 0x10DE JUMPI JUMPDEST DUP2 PUSH2 0x10CD PUSH1 0x20 SWAP4 DUP4 PUSH2 0x2694 JUMP JUMPDEST DUP2 ADD SUB SLT PUSH2 0x9D5 JUMPI POP MLOAD SWAP4 CODESIZE PUSH2 0x1064 JUMP JUMPDEST RETURNDATASIZE SWAP2 POP PUSH2 0x10C0 JUMP JUMPDEST DUP3 MLOAD RETURNDATASIZE PUSH1 0x0 DUP3 RETURNDATACOPY RETURNDATASIZE SWAP1 REVERT JUMPDEST PUSH1 0x5 DUP2 SUB PUSH2 0x1125 JUMPI POP PUSH2 0xBE7 SWAP2 POP DUP5 PUSH1 0x5 SHL ADD CALLDATALOAD PUSH1 0xA0 MLOAD ADD PUSH2 0x1116 PUSH1 0x40 DUP3 ADD CALLDATALOAD PUSH2 0x287C JUMP JUMPDEST PUSH1 0x20 PUSH1 0x60 DUP4 ADD CALLDATALOAD SWAP3 ADD CALLDATALOAD PUSH2 0x28B8 JUMP JUMPDEST PUSH1 0x6 DUP2 SUB PUSH2 0x1274 JUMPI POP DUP5 PUSH1 0x5 SHL DUP2 ADD CALLDATALOAD PUSH1 0xA0 MLOAD ADD PUSH1 0x60 DUP2 ADD CALLDATALOAD SWAP1 PUSH2 0x114D PUSH1 0x40 DUP1 SWAP3 ADD CALLDATALOAD PUSH2 0x287C JUMP JUMPDEST SWAP3 DUP3 ISZERO DUP1 ISZERO PUSH2 0x1269 JUMPI JUMPDEST PUSH2 0x1241 JUMPI PUSH1 0x20 PUSH20 0xFFFFFFFFFFFFFFFFFFFFFFFFFFFFFFFFFFFFFFFF SWAP2 DUP10 PUSH1 0x5 SHL ADD CALLDATALOAD PUSH1 0xA0 MLOAD ADD ADD CALLDATALOAD AND SWAP4 DUP5 ISZERO PUSH1 0x0 EQ PUSH2 0x11A5 JUMPI POP POP PUSH2 0xBE7 SWAP3 POP PUSH2 0x119E PUSH2 0x2710 SWAP2 SELFBALANCE PUSH2 0x2999 JUMP JUMPDEST DIV SWAP1 PUSH2 0x3480 JUMP JUMPDEST DUP2 MLOAD SWAP1 PUSH32 0x70A0823100000000000000000000000000000000000000000000000000000000 DUP3 MSTORE ADDRESS SWAP1 DUP3 ADD MSTORE PUSH1 0x20 DUP2 PUSH1 0x24 DUP2 DUP9 GAS STATICCALL SWAP2 DUP3 ISZERO PUSH2 0x1237 JUMPI POP PUSH1 0x0 SWAP2 PUSH2 0x1203 JUMPI JUMPDEST POP PUSH2 0x11FC PUSH2 0xBE7 SWAP5 SWAP4 SWAP3 PUSH2 0x2710 SWAP3 PUSH2 0x2999 JUMP JUMPDEST DIV SWAP2 PUSH2 0x34EE JUMP JUMPDEST SWAP1 PUSH1 0x20 DUP3 RETURNDATASIZE PUSH1 0x20 GT PUSH2 0x122F JUMPI JUMPDEST DUP2 PUSH2 0x121D PUSH1 0x20 SWAP4 DUP4 PUSH2 0x2694 JUMP JUMPDEST DUP2 ADD SUB SLT PUSH2 0x9D5 JUMPI POP MLOAD PUSH2 0x11FC PUSH2 0x11E9 JUMP JUMPDEST RETURNDATASIZE SWAP2 POP PUSH2 0x1210 JUMP JUMPDEST MLOAD RETURNDATASIZE PUSH1 0x0 DUP3 RETURNDATACOPY RETURNDATASIZE SWAP1 REVERT JUMPDEST DUP5 DUP3 MLOAD PUSH32 0xDEAA01E600000000000000000000000000000000000000000000000000000000 DUP2 MSTORE REVERT JUMPDEST POP PUSH2 0x2710 DUP4 GT PUSH2 0x1157 JUMP JUMPDEST DUP3 PUSH1 0x24 SWAP2 PUSH1 0x40 MLOAD SWAP2 PUSH32 0xD76A1E9E00000000000000000000000000000000000000000000000000000000 DUP4 MSTORE DUP3 ADD MSTORE REVERT JUMPDEST SWAP4 SWAP8 SWAP6 SWAP4 DUP2 SUB PUSH2 0x1586 JUMPI POP DUP4 PUSH1 0x5 SHL DUP2 ADD CALLDATALOAD PUSH1 0xA0 MLOAD ADD SWAP1 PUSH1 0x40 SWAP1 PUSH2 0x12DD PUSH2 0x12D4 DUP4 DUP6 ADD CALLDATALOAD SWAP5 PUSH1 0x20 DUP2 CALLDATALOAD SWAP2 ADD PUSH2 0x3147 JUMP JUMPDEST SWAP1 DUP2 ADD SWAP1 PUSH2 0x27FA JUMP JUMPDEST SWAP1 DUP7 PUSH1 0x5 SHL DUP2 ADD CALLDATALOAD PUSH1 0xA0 MLOAD ADD SWAP1 PUSH1 0xA0 DUP3 ADD CALLDATALOAD PUSH1 0x0 EQ PUSH2 0x157A JUMPI PUSH2 0x131D PUSH1 0x20 PUSH20 0xFFFFFFFFFFFFFFFFFFFFFFFFFFFFFFFFFFFFFFFF PUSH1 0x1 SLOAD AND SWAP4 JUMPDEST ADD CALLDATALOAD PUSH2 0x287C JUMP JUMPDEST SWAP5 PUSH20 0xFFFFFFFFFFFFFFFFFFFFFFFFFFFFFFFFFFFFFFFF SWAP3 PUSH2 0x13A0 PUSH2 0x1358 DUP6 PUSH2 0x1344 DUP9 PUSH2 0x2A8E JUMP JUMPDEST MLOAD AND DUP7 PUSH2 0x1350 DUP10 PUSH2 0x2A9B JUMP JUMPDEST MLOAD AND SWAP1 PUSH2 0x2C3E JUMP JUMPDEST SWAP1 PUSH32 0x0 PUSH32 0x0 PUSH2 0x2B36 JUMP JUMPDEST SWAP2 DUP3 DUP2 PUSH2 0x155D JUMPI JUMPDEST POP POP POP DUP4 MLOAD PUSH32 0xFFFFFFFFFFFFFFFFFFFFFFFFFFFFFFFFFFFFFFFFFFFFFFFFFFFFFFFFFFFFFFFF DUP2 ADD SWAP1 DUP2 GT PUSH2 0x152E JUMPI PUSH2 0x13E2 DUP5 SWAP2 DUP7 PUSH2 0x2AAB JUMP JUMPDEST MLOAD AND SWAP4 DUP6 MLOAD SWAP4 PUSH32 0x70A0823100000000000000000000000000000000000000000000000000000000 SWAP1 DUP2 DUP7 MSTORE DUP9 AND SWAP3 PUSH1 0x4 SWAP9 DUP5 DUP11 DUP9 ADD MSTORE PUSH1 0x24 SWAP4 PUSH1 0x20 DUP9 DUP7 DUP2 DUP13 GAS STATICCALL SWAP8 DUP9 ISZERO PUSH2 0x1523 JUMPI PUSH1 0x0 SWAP9 PUSH2 0x14ED JUMPI JUMPDEST POP SWAP2 PUSH2 0x1443 SWAP2 PUSH1 0x20 SWAP7 SWAP6 SWAP5 SWAP4 PUSH2 0x2CB7 JUMP JUMPDEST DUP8 MLOAD SWAP7 DUP8 SWAP4 DUP5 SWAP3 DUP4 MSTORE DUP11 DUP4 ADD MSTORE GAS STATICCALL SWAP3 DUP4 ISZERO PUSH2 0x14E2 JUMPI PUSH1 0x0 SWAP4 PUSH2 0x14AD JUMPI JUMPDEST POP SWAP1 PUSH1 0x60 PUSH2 0x147B SWAP3 DUP10 PUSH1 0x5 SHL ADD CALLDATALOAD PUSH1 0xA0 MLOAD ADD ADD CALLDATALOAD SWAP3 PUSH2 0x2ABF JUMP JUMPDEST LT PUSH2 0x1487 JUMPI POP POP PUSH2 0x8DC JUMP JUMPDEST MLOAD PUSH32 0x849EAF9800000000000000000000000000000000000000000000000000000000 DUP2 MSTORE REVERT JUMPDEST SWAP1 SWAP3 PUSH1 0x20 DUP3 RETURNDATASIZE PUSH1 0x20 GT PUSH2 0x14DA JUMPI JUMPDEST DUP2 PUSH2 0x14C8 PUSH1 0x20 SWAP4 DUP4 PUSH2 0x2694 JUMP JUMPDEST DUP2 ADD SUB SLT PUSH2 0x9D5 JUMPI POP MLOAD SWAP2 PUSH1 0x60 PUSH2 0x1461 JUMP JUMPDEST RETURNDATASIZE SWAP2 POP PUSH2 0x14BB JUMP JUMPDEST DUP5 MLOAD RETURNDATASIZE PUSH1 0x0 DUP3 RETURNDATACOPY RETURNDATASIZE SWAP1 REVERT JUMPDEST SWAP1 SWAP8 PUSH1 0x20 DUP3 RETURNDATASIZE PUSH1 0x20 GT PUSH2 0x151B JUMPI JUMPDEST DUP2 PUSH2 0x1508 PUSH1 0x20 SWAP4 DUP4 PUSH2 0x2694 JUMP JUMPDEST DUP2 ADD SUB SLT PUSH2 0x9D5 JUMPI POP MLOAD SWAP7 PUSH2 0x1443 PUSH2 0x1432 JUMP JUMPDEST RETURNDATASIZE SWAP2 POP PUSH2 0x14FB JUMP JUMPDEST DUP11 MLOAD RETURNDATASIZE PUSH1 0x0 DUP3 RETURNDATACOPY RETURNDATASIZE SWAP1 REVERT JUMPDEST PUSH32 0x4E487B7100000000000000000000000000000000000000000000000000000000 PUSH1 0x0 MSTORE PUSH1 0x11 PUSH1 0x4 MSTORE PUSH1 0x24 PUSH1 0x0 REVERT JUMPDEST PUSH2 0x1572 SWAP3 DUP7 PUSH2 0x156B DUP10 PUSH2 0x2A8E JUMP JUMPDEST MLOAD AND PUSH2 0x2ACC JUMP JUMPDEST CODESIZE DUP1 DUP3 PUSH2 0x13A8 JUMP JUMPDEST PUSH2 0x131D PUSH1 0x20 ADDRESS SWAP4 PUSH2 0x1316 JUMP JUMPDEST PUSH1 0x9 DUP2 SUB PUSH2 0x19A0 JUMPI POP PUSH2 0x15AB PUSH2 0x12D4 DUP6 PUSH1 0x5 SHL DUP4 ADD CALLDATALOAD PUSH1 0xA0 MLOAD ADD PUSH1 0x20 DUP2 CALLDATALOAD SWAP2 ADD PUSH2 0x3147 JUMP JUMPDEST DUP5 PUSH1 0x5 SHL DUP3 ADD CALLDATALOAD PUSH1 0xA0 MLOAD ADD SWAP1 PUSH1 0xA0 DUP3 ADD CALLDATALOAD PUSH1 0x0 EQ PUSH2 0x1994 JUMPI PUSH2 0x15E9 PUSH1 0x20 PUSH20 0xFFFFFFFFFFFFFFFFFFFFFFFFFFFFFFFFFFFFFFFF PUSH1 0x1 SLOAD AND SWAP4 ADD CALLDATALOAD PUSH2 0x287C JUMP JUMPDEST SWAP1 PUSH1 0x0 SWAP3 PUSH1 0x2 DUP3 MLOAD LT PUSH2 0x196A JUMPI PUSH1 0x40 DUP9 PUSH1 0x5 SHL DUP7 ADD CALLDATALOAD PUSH1 0xA0 MLOAD ADD ADD CALLDATALOAD SWAP5 DUP3 MLOAD DUP1 PUSH32 0xFFFFFFFFFFFFFFFFFFFFFFFFFFFFFFFFFFFFFFFFFFFFFFFFFFFFFFFFFFFFFFFF DUP2 ADD GT PUSH2 0x152E JUMPI PUSH32 0xFFFFFFFFFFFFFFFFFFFFFFFFFFFFFFFFFFFFFFFFFFFFFFFFFFFFFFFFFFFFFFFF ADD DUP1 JUMPDEST PUSH2 0x16C5 JUMPI POP PUSH1 0x60 SWAP1 DUP10 PUSH1 0x5 SHL ADD CALLDATALOAD PUSH1 0xA0 MLOAD ADD ADD CALLDATALOAD DUP6 GT PUSH2 0x169B JUMPI PUSH2 0xBE7 SWAP5 DUP5 PUSH2 0x1696 SWAP3 PUSH20 0xFFFFFFFFFFFFFFFFFFFFFFFFFFFFFFFFFFFFFFFF PUSH2 0x156B DUP7 PUSH2 0x2A8E JUMP JUMPDEST PUSH2 0x2CB7 JUMP JUMPDEST PUSH1 0x4 PUSH1 0x40 MLOAD PUSH32 0x8AB0BC1600000000000000000000000000000000000000000000000000000000 DUP2 MSTORE REVERT JUMPDEST SWAP6 SWAP5 POP PUSH32 0xFFFFFFFFFFFFFFFFFFFFFFFFFFFFFFFFFFFFFFFFFFFFFFFFFFFFFFFFFFFFFFFF DUP7 ADD DUP7 DUP2 GT PUSH2 0x152E JUMPI PUSH2 0x177B SWAP6 PUSH2 0x1718 SWAP2 PUSH20 0xFFFFFFFFFFFFFFFFFFFFFFFFFFFFFFFFFFFFFFFF SWAP3 DUP4 SWAP2 DUP8 PUSH2 0x2AAB JUMP JUMPDEST MLOAD AND SWAP1 PUSH2 0x1731 DUP4 PUSH2 0x1729 DUP12 DUP10 PUSH2 0x2AAB JUMP JUMPDEST MLOAD AND DUP4 PUSH2 0x2C3E JUMP JUMPDEST DUP2 SWAP10 SWAP2 PUSH32 0x0 PUSH32 0x0 PUSH2 0x2B36 JUMP JUMPDEST SWAP2 PUSH1 0x40 MLOAD SWAP1 PUSH32 0x902F1AC00000000000000000000000000000000000000000000000000000000 DUP3 MSTORE PUSH1 0x4 SWAP5 PUSH1 0x60 DUP4 DUP8 DUP2 DUP5 DUP10 AND GAS STATICCALL SWAP3 DUP4 ISZERO PUSH2 0x9E0 JUMPI PUSH1 0x0 SWAP1 DUP2 SWAP5 PUSH2 0x1936 JUMPI JUMPDEST POP PUSH14 0xFFFFFFFFFFFFFFFFFFFFFFFFFFFF DUP1 SWAP2 AND SWAP4 AND SWAP11 AND EQ PUSH1 0x0 EQ PUSH2 0x1930 JUMPI SWAP8 SWAP2 JUMPDEST SWAP8 DUP1 ISZERO DUP1 ISZERO PUSH2 0x1928 JUMPI JUMPDEST PUSH2 0x18FF JUMPI DUP2 PUSH2 0x17FB SWAP2 PUSH2 0x2999 JUMP JUMPDEST SWAP2 PUSH2 0x3E8 SWAP3 DUP4 DUP2 MUL SWAP4 DUP2 DUP6 DIV EQ SWAP1 ISZERO OR ISZERO PUSH2 0x18D1 JUMPI SWAP1 PUSH2 0x181A SWAP2 PUSH2 0x2ABF JUMP JUMPDEST SWAP1 PUSH2 0x3E5 SWAP2 DUP3 DUP2 MUL SWAP3 DUP2 DUP5 DIV EQ SWAP1 ISZERO OR ISZERO PUSH2 0x18A3 JUMPI SWAP1 PUSH2 0x1839 SWAP2 PUSH2 0x29AC JUMP JUMPDEST SWAP1 PUSH1 0x1 DUP3 ADD DUP1 SWAP3 GT PUSH2 0x1875 JUMPI POP SWAP6 DUP1 ISZERO PUSH2 0x152E JUMPI PUSH32 0xFFFFFFFFFFFFFFFFFFFFFFFFFFFFFFFFFFFFFFFFFFFFFFFFFFFFFFFFFFFFFFFF ADD DUP1 PUSH2 0x1655 JUMP JUMPDEST PUSH1 0x11 SWAP1 PUSH32 0x4E487B7100000000000000000000000000000000000000000000000000000000 PUSH1 0x0 MSTORE MSTORE PUSH1 0x24 PUSH1 0x0 REVERT JUMPDEST PUSH1 0x11 DUP4 PUSH32 0x4E487B7100000000000000000000000000000000000000000000000000000000 PUSH1 0x0 MSTORE MSTORE PUSH1 0x24 PUSH1 0x0 REVERT JUMPDEST PUSH1 0x11 DUP5 PUSH32 0x4E487B7100000000000000000000000000000000000000000000000000000000 PUSH1 0x0 MSTORE MSTORE PUSH1 0x24 PUSH1 0x0 REVERT JUMPDEST DUP4 PUSH1 0x40 MLOAD PUSH32 0x7B9C891600000000000000000000000000000000000000000000000000000000 DUP2 MSTORE REVERT JUMPDEST POP DUP3 ISZERO PUSH2 0x17ED JUMP JUMPDEST SWAP2 PUSH2 0x17E3 JUMP JUMPDEST SWAP1 POP PUSH2 0x195A SWAP2 SWAP4 POP PUSH1 0x60 RETURNDATASIZE DUP2 GT PUSH2 0x1963 JUMPI JUMPDEST PUSH2 0x1952 DUP2 DUP4 PUSH2 0x2694 JUMP JUMPDEST DUP2 ADD SWAP1 PUSH2 0x2C81 JUMP JUMPDEST POP SWAP3 SWAP1 CODESIZE PUSH2 0x17C1 JUMP JUMPDEST POP RETURNDATASIZE PUSH2 0x1948 JUMP JUMPDEST PUSH1 0x4 PUSH1 0x40 MLOAD PUSH32 0x20DB826700000000000000000000000000000000000000000000000000000000 DUP2 MSTORE REVERT JUMPDEST PUSH2 0x15E9 PUSH1 0x20 ADDRESS SWAP4 PUSH2 0x1316 JUMP JUMPDEST PUSH1 0xA DUP2 SUB PUSH2 0x1B5D JUMPI POP DUP4 PUSH1 0x5 SHL DUP2 ADD CALLDATALOAD PUSH1 0xA0 MLOAD ADD DUP1 CALLDATALOAD DUP2 ADD SWAP1 PUSH1 0x20 DUP3 ADD SWAP2 SUB SWAP1 PUSH1 0xE0 SWAP2 DUP3 DUP2 SLT PUSH2 0x4F3 JUMPI PUSH1 0xC0 DUP1 SWAP2 SLT PUSH2 0x4F3 JUMPI PUSH1 0x40 SWAP3 DUP4 MLOAD SWAP3 PUSH2 0x19E2 DUP5 PUSH2 0x2678 JUMP JUMPDEST PUSH2 0x19F9 DUP2 PUSH1 0x20 DUP12 PUSH1 0x5 SHL DUP10 ADD CALLDATALOAD PUSH1 0xA0 MLOAD ADD ADD PUSH2 0x275B JUMP JUMPDEST DUP5 MSTORE PUSH2 0x1A10 PUSH1 0xA0 DUP11 PUSH1 0x5 SHL DUP9 ADD CALLDATALOAD DUP2 MLOAD ADD ADD PUSH2 0x2727 JUMP JUMPDEST SWAP6 PUSH1 0x20 DUP6 ADD SWAP7 DUP8 MSTORE DUP6 DUP6 ADD SWAP4 DUP11 PUSH1 0x5 SHL DUP3 ADD CALLDATALOAD PUSH1 0xA0 MLOAD ADD ADD CALLDATALOAD DUP5 MSTORE DUP10 PUSH1 0x5 SHL ADD CALLDATALOAD PUSH1 0xA0 MLOAD ADD SWAP2 DUP3 ADD CALLDATALOAD SWAP2 PUSH8 0xFFFFFFFFFFFFFFFF DUP4 GT PUSH2 0x4F3 JUMPI PUSH2 0x1A56 SWAP3 ADD PUSH1 0x20 ADD PUSH2 0x27B3 JUMP JUMPDEST SWAP1 PUSH20 0xFFFFFFFFFFFFFFFFFFFFFFFFFFFFFFFFFFFFFFFF SWAP3 DUP4 PUSH32 0x0 AND SWAP2 DUP5 PUSH1 0x1 SLOAD AND DUP4 EXTCODESIZE ISZERO PUSH2 0x4F3 JUMPI PUSH2 0x1B47 PUSH2 0x1B27 SWAP6 PUSH1 0x0 SWAP8 SWAP4 DUP9 SWAP5 DUP11 MLOAD SWAP12 DUP13 SWAP10 DUP11 SWAP9 DUP10 SWAP8 PUSH32 0x2B67B57000000000000000000000000000000000000000000000000000000000 DUP10 MSTORE PUSH1 0x4 DUP10 ADD MSTORE PUSH1 0x24 DUP9 ADD SWAP1 MLOAD PUSH1 0x60 SWAP1 PUSH20 0xFFFFFFFFFFFFFFFFFFFFFFFFFFFFFFFFFFFFFFFF DUP1 DUP3 MLOAD AND DUP5 MSTORE PUSH1 0x20 DUP3 ADD MLOAD AND PUSH1 0x20 DUP5 ADD MSTORE DUP2 PUSH6 0xFFFFFFFFFFFF SWAP2 DUP3 PUSH1 0x40 DUP3 ADD MLOAD AND PUSH1 0x40 DUP7 ADD MSTORE ADD MLOAD AND SWAP2 ADD MSTORE JUMP JUMPDEST MLOAD AND PUSH1 0xA4 DUP6 ADD MSTORE MLOAD PUSH1 0xC4 DUP5 ADD MSTORE PUSH2 0x100 PUSH1 0xE4 DUP5 ADD MSTORE PUSH2 0x104 DUP4 ADD SWAP1 PUSH2 0x529 JUMP JUMPDEST SUB SWAP3 GAS CALL SWAP1 DUP2 ISZERO PUSH2 0x1237 JUMPI POP PUSH2 0xEF3 JUMPI POP PUSH2 0x8DC JUMP JUMPDEST PUSH1 0xB DUP2 SUB PUSH2 0x1D24 JUMPI POP DUP4 PUSH1 0x5 SHL ADD CALLDATALOAD PUSH1 0xA0 MLOAD ADD PUSH1 0x40 PUSH2 0x1B83 PUSH1 0x20 DUP3 DUP5 ADD CALLDATALOAD SWAP4 ADD CALLDATALOAD PUSH2 0x287C JUMP JUMPDEST SWAP2 DUP1 PUSH32 0x8000000000000000000000000000000000000000000000000000000000000000 DUP2 SUB PUSH2 0x1CF1 JUMPI POP POP SELFBALANCE SWAP2 JUMPDEST DUP3 PUSH2 0x1BBE JUMPI POP POP POP PUSH2 0x8DC JUMP JUMPDEST PUSH20 0xFFFFFFFFFFFFFFFFFFFFFFFFFFFFFFFFFFFFFFFF DUP1 PUSH32 0x0 AND SWAP1 DUP2 EXTCODESIZE ISZERO PUSH2 0x4F3 JUMPI DUP4 MLOAD SWAP3 PUSH32 0xD0E30DB000000000000000000000000000000000000000000000000000000000 DUP5 MSTORE PUSH1 0x4 SWAP4 PUSH1 0x0 DUP2 DUP7 DUP2 DUP11 DUP9 GAS CALL DUP1 ISZERO PUSH2 0x1CE6 JUMPI PUSH2 0x1CD7 JUMPI JUMPDEST POP AND SWAP1 ADDRESS DUP3 SUB PUSH2 0x1C4D JUMPI JUMPDEST POP POP PUSH2 0x1073 JUMP JUMPDEST PUSH1 0x20 SWAP3 PUSH1 0x0 PUSH1 0x44 SWAP3 DUP7 MLOAD SWAP8 DUP9 SWAP6 DUP7 SWAP5 PUSH32 0xA9059CBB00000000000000000000000000000000000000000000000000000000 DUP7 MSTORE DUP6 ADD MSTORE PUSH1 0x24 DUP5 ADD MSTORE GAS CALL SWAP1 DUP2 ISZERO PUSH2 0x1237 JUMPI POP PUSH2 0x1C9F JUMPI JUMPDEST DUP1 DUP1 DUP1 DUP1 PUSH2 0x1C46 JUMP JUMPDEST PUSH1 0x20 DUP2 RETURNDATASIZE PUSH1 0x20 GT PUSH2 0x1CCF JUMPI JUMPDEST DUP2 PUSH2 0x1CB8 PUSH1 0x20 SWAP4 DUP4 PUSH2 0x2694 JUMP JUMPDEST DUP2 ADD SUB SLT PUSH2 0x4F3 JUMPI MLOAD DUP1 ISZERO ISZERO SUB PUSH2 0x4F3 JUMPI CODESIZE PUSH2 0x1C96 JUMP JUMPDEST RETURNDATASIZE SWAP2 POP PUSH2 0x1CAB JUMP JUMPDEST PUSH2 0x1CE0 SWAP1 PUSH2 0x2664 JUMP JUMPDEST CODESIZE PUSH2 0x1C3B JUMP JUMPDEST DUP7 MLOAD RETURNDATASIZE PUSH1 0x0 DUP3 RETURNDATACOPY RETURNDATASIZE SWAP1 REVERT JUMPDEST SWAP3 SWAP1 SWAP3 SELFBALANCE LT ISZERO PUSH2 0x1BB1 JUMPI PUSH1 0x4 DUP3 MLOAD PUSH32 0x6A12F10400000000000000000000000000000000000000000000000000000000 DUP2 MSTORE REVERT JUMPDEST PUSH1 0xC DUP2 SUB PUSH2 0x1F2B JUMPI POP PUSH2 0x1D44 PUSH1 0x20 DUP6 PUSH1 0x5 SHL DUP4 ADD CALLDATALOAD PUSH1 0xA0 MLOAD ADD ADD CALLDATALOAD PUSH2 0x287C JUMP JUMPDEST SWAP1 PUSH1 0x40 MLOAD SWAP1 PUSH32 0x70A0823100000000000000000000000000000000000000000000000000000000 DUP3 MSTORE ADDRESS PUSH1 0x4 DUP4 ADD MSTORE PUSH1 0x20 DUP3 PUSH1 0x24 DUP2 PUSH20 0xFFFFFFFFFFFFFFFFFFFFFFFFFFFFFFFFFFFFFFFF PUSH32 0x0 AND GAS STATICCALL SWAP2 DUP3 ISZERO PUSH2 0x9E0 JUMPI PUSH1 0x0 SWAP3 PUSH2 0x1EF6 JUMPI JUMPDEST POP PUSH1 0x40 SWAP1 DUP7 PUSH1 0x5 SHL ADD CALLDATALOAD PUSH1 0xA0 MLOAD ADD ADD CALLDATALOAD DUP2 LT PUSH2 0x1ECC JUMPI DUP1 PUSH2 0x1DE2 JUMPI POP POP PUSH2 0x8DC JUMP JUMPDEST PUSH20 0xFFFFFFFFFFFFFFFFFFFFFFFFFFFFFFFFFFFFFFFF PUSH32 0x0 AND EXTCODESIZE ISZERO PUSH2 0x4F3 JUMPI PUSH1 0x40 MLOAD PUSH32 0x2E1A7D4D00000000000000000000000000000000000000000000000000000000 DUP2 MSTORE DUP2 PUSH1 0x4 DUP3 ADD MSTORE PUSH1 0x0 DUP2 PUSH1 0x24 DUP2 DUP4 PUSH20 0xFFFFFFFFFFFFFFFFFFFFFFFFFFFFFFFFFFFFFFFF PUSH32 0x0 AND GAS CALL DUP1 ISZERO PUSH2 0x9E0 JUMPI PUSH2 0x1EBD JUMPI JUMPDEST POP PUSH20 0xFFFFFFFFFFFFFFFFFFFFFFFFFFFFFFFFFFFFFFFF DUP3 AND ADDRESS EQ PUSH2 0xFE1 JUMPI PUSH2 0xFF1 SWAP2 PUSH2 0x3480 JUMP JUMPDEST PUSH2 0x1EC6 SWAP1 PUSH2 0x2664 JUMP JUMPDEST CODESIZE PUSH2 0x1E96 JUMP JUMPDEST PUSH1 0x4 PUSH1 0x40 MLOAD PUSH32 0x6A12F10400000000000000000000000000000000000000000000000000000000 DUP2 MSTORE REVERT JUMPDEST SWAP1 SWAP2 PUSH1 0x20 DUP3 RETURNDATASIZE PUSH1 0x20 GT PUSH2 0x1F23 JUMPI JUMPDEST DUP2 PUSH2 0x1F11 PUSH1 0x20 SWAP4 DUP4 PUSH2 0x2694 JUMP JUMPDEST DUP2 ADD SUB SLT PUSH2 0x9D5 JUMPI POP MLOAD SWAP1 PUSH1 0x40 PUSH2 0x1DC0 JUMP JUMPDEST RETURNDATASIZE SWAP2 POP PUSH2 0x1F04 JUMP JUMPDEST PUSH1 0xD DUP2 SUB PUSH2 0x218A JUMPI POP DUP4 PUSH1 0x5 SHL ADD CALLDATALOAD PUSH1 0xA0 MLOAD ADD DUP1 CALLDATALOAD DUP2 ADD PUSH1 0x20 DUP2 ADD SWAP2 PUSH1 0x20 DUP2 DUP4 SUB SLT PUSH2 0x4F3 JUMPI PUSH1 0x20 DUP2 ADD CALLDATALOAD SWAP1 PUSH8 0xFFFFFFFFFFFFFFFF DUP3 GT PUSH2 0x4F3 JUMPI ADD DUP3 PUSH1 0x3F DUP3 ADD SLT ISZERO PUSH2 0x4F3 JUMPI PUSH1 0x20 DUP2 ADD CALLDATALOAD SWAP1 PUSH2 0x1F81 DUP3 PUSH2 0x270F JUMP JUMPDEST SWAP4 PUSH1 0x40 SWAP4 PUSH2 0x1F91 DUP6 MLOAD SWAP7 DUP8 PUSH2 0x2694 JUMP JUMPDEST DUP4 DUP7 MSTORE PUSH1 0x20 DUP7 ADD SWAP3 DUP6 DUP5 SWAP6 PUSH1 0x7 SHL DUP3 ADD ADD SWAP3 DUP4 GT PUSH2 0x4F3 JUMPI DUP6 ADD SWAP3 JUMPDEST DUP3 DUP5 LT PUSH2 0x2128 JUMPI POP POP POP POP PUSH20 0xFFFFFFFFFFFFFFFFFFFFFFFFFFFFFFFFFFFFFFFF SWAP1 DUP2 PUSH1 0x1 SLOAD AND DUP5 MLOAD SWAP1 PUSH1 0x0 JUMPDEST DUP3 DUP2 LT PUSH2 0x20BC JUMPI POP POP POP DUP2 PUSH32 0x0 AND SWAP2 DUP3 EXTCODESIZE ISZERO PUSH2 0x4F3 JUMPI DUP4 MLOAD PUSH32 0xD58B1DB00000000000000000000000000000000000000000000000000000000 DUP2 MSTORE PUSH1 0x20 PUSH1 0x4 DUP3 ADD MSTORE SWAP5 MLOAD PUSH1 0x24 DUP7 ADD DUP2 SWAP1 MSTORE DUP6 SWAP3 PUSH1 0x44 DUP5 ADD SWAP3 SWAP1 SWAP2 PUSH1 0x0 SWAP2 JUMPDEST DUP2 DUP4 LT PUSH2 0x2078 JUMPI POP POP POP POP SWAP2 DUP2 PUSH1 0x0 DUP2 DUP2 SWAP6 SUB SWAP3 GAS CALL SWAP1 DUP2 ISZERO PUSH2 0x1237 JUMPI POP PUSH2 0xEF3 JUMPI POP PUSH2 0x8DC JUMP JUMPDEST SWAP2 SWAP4 DUP4 SWAP6 POP PUSH1 0x80 PUSH1 0x20 SWAP2 DUP5 PUSH1 0x60 PUSH1 0x1 SWAP6 SWAP8 MLOAD DUP3 DUP2 MLOAD AND DUP5 MSTORE DUP3 DUP7 DUP3 ADD MLOAD AND DUP7 DUP6 ADD MSTORE DUP3 DUP14 DUP3 ADD MLOAD AND DUP14 DUP6 ADD MSTORE ADD MLOAD AND PUSH1 0x60 DUP3 ADD MSTORE ADD SWAP6 ADD SWAP4 ADD SWAP1 SWAP2 DUP8 SWAP5 SWAP4 SWAP3 PUSH2 0x2050 JUMP JUMPDEST DUP2 DUP6 PUSH2 0x20C8 DUP4 DUP11 PUSH2 0x2AAB JUMP JUMPDEST MLOAD MLOAD AND SUB PUSH2 0x20FF JUMPI PUSH32 0xFFFFFFFFFFFFFFFFFFFFFFFFFFFFFFFFFFFFFFFFFFFFFFFFFFFFFFFFFFFFFFFF DUP2 EQ PUSH2 0x152E JUMPI PUSH1 0x1 ADD PUSH2 0x1FD9 JUMP JUMPDEST PUSH1 0x4 DUP7 MLOAD PUSH32 0xE700287700000000000000000000000000000000000000000000000000000000 DUP2 MSTORE REVERT JUMPDEST PUSH1 0x80 PUSH1 0x20 DUP6 DUP5 SUB ADD SLT PUSH2 0x4F3 JUMPI PUSH1 0x20 PUSH1 0x80 SWAP2 DUP8 MLOAD PUSH2 0x2145 DUP2 PUSH2 0x2648 JUMP JUMPDEST PUSH2 0x214E DUP8 PUSH2 0x2727 JUMP JUMPDEST DUP2 MSTORE PUSH2 0x215B DUP4 DUP9 ADD PUSH2 0x2727 JUMP JUMPDEST DUP4 DUP3 ADD MSTORE PUSH2 0x216A DUP10 DUP9 ADD PUSH2 0x2727 JUMP JUMPDEST DUP10 DUP3 ADD MSTORE PUSH2 0x217A PUSH1 0x60 DUP9 ADD PUSH2 0x2727 JUMP JUMPDEST PUSH1 0x60 DUP3 ADD MSTORE DUP2 MSTORE ADD SWAP4 ADD SWAP3 PUSH2 0x1FAD JUMP JUMPDEST SWAP1 SWAP2 POP PUSH1 0xE DUP2 SUB PUSH2 0x22F6 JUMPI POP PUSH1 0x40 SWAP1 DUP2 MLOAD SWAP1 PUSH32 0x70A0823100000000000000000000000000000000000000000000000000000000 DUP3 MSTORE DUP2 PUSH20 0xFFFFFFFFFFFFFFFFFFFFFFFFFFFFFFFFFFFFFFFF SWAP2 PUSH1 0x20 DUP3 DUP5 DUP3 DUP11 PUSH1 0x5 SHL DUP6 ADD CALLDATALOAD PUSH1 0xA0 MLOAD ADD ADD CALLDATALOAD AND SWAP5 PUSH1 0x4 SWAP6 DUP7 DUP4 ADD MSTORE PUSH1 0x24 SWAP7 DUP8 SWAP2 DUP10 DUP13 PUSH1 0x5 SHL DUP8 ADD CALLDATALOAD PUSH1 0xA0 MLOAD ADD ADD CALLDATALOAD AND GAS STATICCALL SWAP2 DUP3 ISZERO PUSH2 0x22EB JUMPI PUSH1 0x0 SWAP3 PUSH2 0x22B6 JUMPI JUMPDEST POP PUSH1 0x60 SWAP1 DUP8 PUSH1 0x5 SHL ADD CALLDATALOAD PUSH1 0xA0 MLOAD ADD ADD CALLDATALOAD GT SWAP3 DUP4 ISZERO SWAP4 PUSH2 0x2237 JUMPI POP POP POP PUSH2 0x8DC JUMP JUMPDEST DUP1 MLOAD PUSH32 0xA328167200000000000000000000000000000000000000000000000000000000 PUSH1 0x20 DUP3 ADD MSTORE DUP3 DUP2 MSTORE SWAP4 SWAP5 POP DUP4 DUP2 ADD SWAP3 SWAP1 SWAP2 PUSH8 0xFFFFFFFFFFFFFFFF DUP5 GT DUP6 DUP6 LT OR PUSH2 0x228A JUMPI POP POP MSTORE SWAP1 CODESIZE DUP1 DUP1 PUSH2 0x1073 JUMP JUMPDEST PUSH1 0x41 SWAP1 PUSH32 0x4E487B7100000000000000000000000000000000000000000000000000000000 PUSH1 0x0 MSTORE MSTORE PUSH1 0x0 REVERT JUMPDEST SWAP1 SWAP2 PUSH1 0x20 DUP3 RETURNDATASIZE PUSH1 0x20 GT PUSH2 0x22E3 JUMPI JUMPDEST DUP2 PUSH2 0x22D1 PUSH1 0x20 SWAP4 DUP4 PUSH2 0x2694 JUMP JUMPDEST DUP2 ADD SUB SLT PUSH2 0x9D5 JUMPI POP MLOAD SWAP1 PUSH1 0x60 PUSH2 0x2216 JUMP JUMPDEST RETURNDATASIZE SWAP2 POP PUSH2 0x22C4 JUMP JUMPDEST DUP6 MLOAD RETURNDATASIZE PUSH1 0x0 DUP3 RETURNDATACOPY RETURNDATASIZE SWAP1 REVERT JUMPDEST PUSH1 0x24 SWAP1 PUSH1 0x40 MLOAD SWAP1 PUSH32 0xD76A1E9E00000000000000000000000000000000000000000000000000000000 DUP3 MSTORE PUSH1 0x4 DUP3 ADD MSTORE REVERT JUMPDEST SWAP2 SWAP7 SWAP4 SWAP6 SWAP5 SWAP3 SWAP2 PUSH1 0x21 DUP2 SUB PUSH2 0x22F6 JUMPI POP PUSH2 0x2350 DUP7 PUSH1 0x5 SHL DUP3 ADD CALLDATALOAD PUSH1 0xA0 MLOAD ADD PUSH1 0x20 DUP2 CALLDATALOAD SWAP2 ADD PUSH2 0x3126 JUMP JUMPDEST PUSH2 0x2377 DUP9 PUSH1 0x5 SWAP10 SWAP4 SWAP10 SHL DUP5 ADD CALLDATALOAD PUSH1 0xA0 MLOAD ADD PUSH1 0x20 DUP1 PUSH1 0x40 DUP4 ADD CALLDATALOAD DUP4 ADD SWAP3 DUP4 SUB ADD SWAP2 ADD CALLDATALOAD PUSH2 0x3119 JUMP JUMPDEST DUP3 PUSH1 0x5 SHL DUP5 ADD CALLDATALOAD PUSH1 0xA0 MLOAD ADD CALLDATALOAD LT PUSH2 0xACD JUMPI PUSH2 0x23CA SWAP1 PUSH1 0x40 SWAP8 SWAP5 SWAP8 MLOAD SWAP9 PUSH32 0x24856BC300000000000000000000000000000000000000000000000000000000 PUSH1 0x20 DUP12 ADD MSTORE PUSH1 0x40 PUSH1 0x24 DUP12 ADD MSTORE PUSH1 0x64 DUP11 ADD SWAP2 PUSH2 0x2609 JUMP JUMPDEST PUSH32 0xFFFFFFFFFFFFFFFFFFFFFFFFFFFFFFFFFFFFFFFFFFFFFFFFFFFFFFFFFFFFFFDC DUP9 DUP3 SUB ADD PUSH1 0x44 DUP10 ADD MSTORE PUSH1 0x20 DUP3 PUSH1 0x5 SHL DUP5 ADD CALLDATALOAD PUSH1 0xA0 MLOAD ADD PUSH1 0x40 DUP2 ADD CALLDATALOAD ADD ADD CALLDATALOAD DUP2 MSTORE PUSH1 0x20 DUP2 ADD SWAP7 DUP3 PUSH1 0x5 SHL DUP5 ADD CALLDATALOAD PUSH1 0xA0 MLOAD ADD SWAP5 PUSH1 0x40 PUSH1 0x20 DUP1 DUP3 DUP10 ADD CALLDATALOAD DUP10 ADD ADD CALLDATALOAD PUSH1 0x5 SHL DUP6 ADD ADD SWAP7 DUP2 DUP2 ADD CALLDATALOAD ADD ADD SWAP1 PUSH1 0x0 SWAP7 JUMPDEST PUSH1 0x20 DUP7 PUSH1 0x5 SHL DUP9 ADD CALLDATALOAD PUSH1 0xA0 MLOAD ADD PUSH1 0x40 DUP2 ADD CALLDATALOAD ADD ADD CALLDATALOAD DUP9 LT ISZERO PUSH2 0x24FD JUMPI PUSH32 0xFFFFFFFFFFFFFFFFFFFFFFFFFFFFFFFFFFFFFFFFFFFFFFFFFFFFFFFFFFFFFFE0 DUP6 DUP3 SUB ADD DUP12 MSTORE DUP6 PUSH1 0x5 SHL DUP8 ADD CALLDATALOAD PUSH1 0xA0 MLOAD ADD PUSH1 0x40 DUP2 ADD CALLDATALOAD ADD DUP4 CALLDATALOAD PUSH32 0xFFFFFFFFFFFFFFFFFFFFFFFFFFFFFFFFFFFFFFFFFFFFFFFFFFFFFFFFFFFFFFA1 DUP3 CALLDATASIZE SUB ADD DUP2 SLT ISZERO PUSH2 0x4F3 JUMPI ADD DUP10 DUP2 ADD SWAP2 SWAP1 PUSH1 0x40 ADD CALLDATALOAD PUSH8 0xFFFFFFFFFFFFFFFF DUP2 GT PUSH2 0x4F3 JUMPI DUP1 CALLDATASIZE SUB DUP4 SGT PUSH2 0x4F3 JUMPI DUP15 SWAP3 PUSH1 0x20 SWAP3 DUP4 SWAP3 PUSH2 0x24EF SWAP3 PUSH2 0x2609 JUMP JUMPDEST SWAP5 ADD SWAP12 ADD SWAP8 ADD SWAP7 SWAP10 SWAP2 PUSH2 0x243B JUMP JUMPDEST SWAP2 POP SWAP10 SWAP4 SWAP8 SWAP9 POP DUP4 SWAP2 SWAP11 POP PUSH1 0x0 SWAP6 POP DUP6 SWAP5 POP PUSH2 0x2540 SWAP3 POP SUB PUSH32 0xFFFFFFFFFFFFFFFFFFFFFFFFFFFFFFFFFFFFFFFFFFFFFFFFFFFFFFFFFFFFFFE0 DUP2 ADD DUP4 MSTORE DUP3 PUSH2 0x2694 JUMP JUMPDEST PUSH1 0x20 DUP2 MLOAD SWAP2 ADD DUP3 ADDRESS GAS CALL SWAP1 RETURNDATASIZE ISZERO PUSH2 0x257B JUMPI POP RETURNDATASIZE PUSH2 0x255C DUP2 PUSH2 0x26D5 JUMP JUMPDEST SWAP1 PUSH2 0x256A PUSH1 0x40 MLOAD SWAP3 DUP4 PUSH2 0x2694 JUMP JUMPDEST DUP2 MSTORE RETURNDATASIZE PUSH1 0x0 PUSH1 0x20 DUP4 ADD RETURNDATACOPY JUMPDEST SWAP1 PUSH2 0x8DC JUMP JUMPDEST PUSH2 0x2575 JUMP JUMPDEST PUSH1 0x4 PUSH1 0x40 MLOAD PUSH32 0xE68EC04C00000000000000000000000000000000000000000000000000000000 DUP2 MSTORE REVERT JUMPDEST PUSH32 0x4E487B7100000000000000000000000000000000000000000000000000000000 PUSH1 0x0 MSTORE PUSH1 0x32 PUSH1 0x4 MSTORE PUSH1 0x24 PUSH1 0x0 REVERT JUMPDEST POP POP SWAP1 POP JUMP JUMPDEST PUSH1 0x4 PUSH1 0x40 MLOAD PUSH32 0xFF633A3800000000000000000000000000000000000000000000000000000000 DUP2 MSTORE REVERT JUMPDEST PUSH1 0x1F DUP3 PUSH1 0x20 SWAP5 SWAP4 PUSH32 0xFFFFFFFFFFFFFFFFFFFFFFFFFFFFFFFFFFFFFFFFFFFFFFFFFFFFFFFFFFFFFFE0 SWAP4 DUP2 DUP7 MSTORE DUP7 DUP7 ADD CALLDATACOPY PUSH1 0x0 DUP6 DUP3 DUP7 ADD ADD MSTORE ADD AND ADD ADD SWAP1 JUMP JUMPDEST PUSH1 0x80 DUP2 ADD SWAP1 DUP2 LT PUSH8 0xFFFFFFFFFFFFFFFF DUP3 GT OR PUSH2 0x9EC JUMPI PUSH1 0x40 MSTORE JUMP JUMPDEST PUSH8 0xFFFFFFFFFFFFFFFF DUP2 GT PUSH2 0x9EC JUMPI PUSH1 0x40 MSTORE JUMP JUMPDEST PUSH1 0x60 DUP2 ADD SWAP1 DUP2 LT PUSH8 0xFFFFFFFFFFFFFFFF DUP3 GT OR PUSH2 0x9EC JUMPI PUSH1 0x40 MSTORE JUMP JUMPDEST SWAP1 PUSH1 0x1F PUSH32 0xFFFFFFFFFFFFFFFFFFFFFFFFFFFFFFFFFFFFFFFFFFFFFFFFFFFFFFFFFFFFFFE0 SWAP2 ADD AND DUP2 ADD SWAP1 DUP2 LT PUSH8 0xFFFFFFFFFFFFFFFF DUP3 GT OR PUSH2 0x9EC JUMPI PUSH1 0x40 MSTORE JUMP JUMPDEST PUSH8 0xFFFFFFFFFFFFFFFF DUP2 GT PUSH2 0x9EC JUMPI PUSH1 0x1F ADD PUSH32 0xFFFFFFFFFFFFFFFFFFFFFFFFFFFFFFFFFFFFFFFFFFFFFFFFFFFFFFFFFFFFFFE0 AND PUSH1 0x20 ADD SWAP1 JUMP JUMPDEST PUSH8 0xFFFFFFFFFFFFFFFF DUP2 GT PUSH2 0x9EC JUMPI PUSH1 0x5 SHL PUSH1 0x20 ADD SWAP1 JUMP JUMPDEST CALLDATALOAD SWAP1 PUSH20 0xFFFFFFFFFFFFFFFFFFFFFFFFFFFFFFFFFFFFFFFF DUP3 AND DUP3 SUB PUSH2 0x4F3 JUMPI JUMP JUMPDEST CALLDATALOAD SWAP1 PUSH6 0xFFFFFFFFFFFF DUP3 AND DUP3 SUB PUSH2 0x4F3 JUMPI JUMP JUMPDEST SWAP2 SWAP1 DUP3 PUSH1 0x80 SWAP2 SUB SLT PUSH2 0x4F3 JUMPI PUSH1 0x40 MLOAD PUSH2 0x2773 DUP2 PUSH2 0x2648 JUMP JUMPDEST PUSH1 0x60 PUSH2 0x27AE DUP2 DUP4 SWAP6 PUSH2 0x2784 DUP2 PUSH2 0x2727 JUMP JUMPDEST DUP6 MSTORE PUSH2 0x2792 PUSH1 0x20 DUP3 ADD PUSH2 0x2727 JUMP JUMPDEST PUSH1 0x20 DUP7 ADD MSTORE PUSH2 0x27A3 PUSH1 0x40 DUP3 ADD PUSH2 0x2748 JUMP JUMPDEST PUSH1 0x40 DUP7 ADD MSTORE ADD PUSH2 0x2748 JUMP JUMPDEST SWAP2 ADD MSTORE JUMP JUMPDEST DUP2 PUSH1 0x1F DUP3 ADD SLT ISZERO PUSH2 0x4F3 JUMPI DUP1 CALLDATALOAD SWAP1 PUSH2 0x27CA DUP3 PUSH2 0x26D5 JUMP JUMPDEST SWAP3 PUSH2 0x27D8 PUSH1 0x40 MLOAD SWAP5 DUP6 PUSH2 0x2694 JUMP JUMPDEST DUP3 DUP5 MSTORE PUSH1 0x20 DUP4 DUP4 ADD ADD GT PUSH2 0x4F3 JUMPI DUP2 PUSH1 0x0 SWAP3 PUSH1 0x20 DUP1 SWAP4 ADD DUP4 DUP7 ADD CALLDATACOPY DUP4 ADD ADD MSTORE SWAP1 JUMP JUMPDEST PUSH1 0x20 SWAP1 DUP2 DUP2 DUP5 SUB SLT PUSH2 0x4F3 JUMPI DUP1 CALLDATALOAD SWAP1 PUSH8 0xFFFFFFFFFFFFFFFF DUP3 GT PUSH2 0x4F3 JUMPI ADD SWAP2 DUP1 PUSH1 0x1F DUP5 ADD SLT ISZERO PUSH2 0x4F3 JUMPI DUP3 CALLDATALOAD PUSH2 0x2830 DUP2 PUSH2 0x270F JUMP JUMPDEST SWAP4 PUSH2 0x283E PUSH1 0x40 MLOAD SWAP6 DUP7 PUSH2 0x2694 JUMP JUMPDEST DUP2 DUP6 MSTORE DUP4 DUP1 DUP7 ADD SWAP3 PUSH1 0x5 SHL DUP3 ADD ADD SWAP3 DUP4 GT PUSH2 0x4F3 JUMPI DUP4 ADD SWAP1 JUMPDEST DUP3 DUP3 LT PUSH2 0x2865 JUMPI POP POP POP POP SWAP1 JUMP JUMPDEST DUP4 DUP1 SWAP2 PUSH2 0x2871 DUP5 PUSH2 0x2727 JUMP JUMPDEST DUP2 MSTORE ADD SWAP2 ADD SWAP1 PUSH2 0x2857 JUMP JUMPDEST PUSH20 0xFFFFFFFFFFFFFFFFFFFFFFFFFFFFFFFFFFFFFFFF SWAP1 DUP1 DUP3 AND PUSH1 0x1 DUP2 SUB PUSH2 0x28A6 JUMPI POP POP PUSH1 0x1 SLOAD AND SWAP1 JUMP JUMPDEST SWAP1 SWAP2 POP PUSH1 0x2 SUB PUSH2 0x28B5 JUMPI POP ADDRESS SWAP1 JUMP JUMPDEST SWAP1 JUMP JUMPDEST SWAP1 SWAP3 SWAP2 SWAP1 PUSH20 0xFFFFFFFFFFFFFFFFFFFFFFFFFFFFFFFFFFFFFFFF AND DUP1 PUSH2 0x28E4 JUMPI POP PUSH2 0x28E2 SWAP2 SWAP3 PUSH2 0x3480 JUMP JUMPDEST JUMP JUMPDEST PUSH32 0x8000000000000000000000000000000000000000000000000000000000000000 DUP3 EQ PUSH2 0x2917 JUMPI JUMPDEST SWAP3 PUSH2 0x28E2 SWAP3 SWAP4 PUSH2 0x34EE JUMP JUMPDEST SWAP1 POP PUSH1 0x40 MLOAD SWAP3 PUSH32 0x70A0823100000000000000000000000000000000000000000000000000000000 DUP5 MSTORE ADDRESS PUSH1 0x4 DUP6 ADD MSTORE PUSH1 0x20 DUP5 PUSH1 0x24 DUP2 DUP6 GAS STATICCALL SWAP4 DUP5 ISZERO PUSH2 0x9E0 JUMPI PUSH1 0x0 SWAP5 PUSH2 0x2966 JUMPI JUMPDEST POP SWAP3 SWAP1 PUSH2 0x290C JUMP JUMPDEST PUSH1 0x20 DUP2 RETURNDATASIZE DUP3 GT PUSH2 0x2991 JUMPI JUMPDEST DUP2 PUSH2 0x297E PUSH1 0x20 SWAP4 DUP4 PUSH2 0x2694 JUMP JUMPDEST DUP2 ADD SUB SLT PUSH2 0x1E1 JUMPI MLOAD SWAP4 POP PUSH2 0x28E2 PUSH2 0x295E JUMP JUMPDEST RETURNDATASIZE SWAP2 POP PUSH2 0x2971 JUMP JUMPDEST DUP2 DUP2 MUL SWAP3 SWAP2 DUP2 ISZERO SWAP2 DUP5 DIV EQ OR ISZERO PUSH2 0x152E JUMPI JUMP JUMPDEST DUP2 ISZERO PUSH2 0x29B6 JUMPI DIV SWAP1 JUMP JUMPDEST PUSH32 0x4E487B7100000000000000000000000000000000000000000000000000000000 PUSH1 0x0 MSTORE PUSH1 0x12 PUSH1 0x4 MSTORE PUSH1 0x24 PUSH1 0x0 REVERT JUMPDEST SWAP2 SWAP3 PUSH20 0xFFFFFFFFFFFFFFFFFFFFFFFFFFFFFFFFFFFFFFFF SWAP2 DUP3 PUSH32 0x0 AND SWAP4 DUP5 EXTCODESIZE ISZERO PUSH2 0x4F3 JUMPI PUSH1 0x0 SWAP5 DUP5 DUP7 SWAP3 DUP2 PUSH1 0x84 SWAP7 DUP2 PUSH1 0x40 MLOAD SWAP12 DUP13 SWAP11 DUP12 SWAP10 PUSH32 0x36C7851600000000000000000000000000000000000000000000000000000000 DUP12 MSTORE AND PUSH1 0x4 DUP11 ADD MSTORE AND PUSH1 0x24 DUP9 ADD MSTORE AND PUSH1 0x44 DUP7 ADD MSTORE AND PUSH1 0x64 DUP5 ADD MSTORE GAS CALL DUP1 ISZERO PUSH2 0x9E0 JUMPI PUSH2 0x2A85 JUMPI POP JUMP JUMPDEST PUSH2 0x28E2 SWAP1 PUSH2 0x2664 JUMP JUMPDEST DUP1 MLOAD ISZERO PUSH2 0x25AA JUMPI PUSH1 0x20 ADD SWAP1 JUMP JUMPDEST DUP1 MLOAD PUSH1 0x1 LT ISZERO PUSH2 0x25AA JUMPI PUSH1 0x40 ADD SWAP1 JUMP JUMPDEST DUP1 MLOAD DUP3 LT ISZERO PUSH2 0x25AA JUMPI PUSH1 0x20 SWAP2 PUSH1 0x5 SHL ADD ADD SWAP1 JUMP JUMPDEST SWAP2 SWAP1 DUP3 SUB SWAP2 DUP3 GT PUSH2 0x152E JUMPI JUMP JUMPDEST SWAP3 SWAP2 SWAP1 PUSH20 0xFFFFFFFFFFFFFFFFFFFFFFFFFFFFFFFFFFFFFFFF DUP1 DUP3 AND ADDRESS SUB PUSH2 0x2AF8 JUMPI POP POP PUSH2 0x28E2 SWAP3 PUSH2 0x28B8 JUMP JUMPDEST DUP1 DUP5 SWAP6 SWAP5 GT PUSH2 0x2B0C JUMPI PUSH2 0x28E2 SWAP5 AND SWAP3 PUSH2 0x29E5 JUMP JUMPDEST PUSH1 0x4 PUSH1 0x40 MLOAD PUSH32 0xC4BD89A900000000000000000000000000000000000000000000000000000000 DUP2 MSTORE REVERT JUMPDEST SWAP2 PUSH20 0xFFFFFFFFFFFFFFFFFFFFFFFFFFFFFFFFFFFFFFFF SWAP4 PUSH2 0x2C37 SWAP2 PUSH1 0x40 MLOAD SWAP1 PUSH1 0x20 DUP3 ADD SWAP3 PUSH32 0xFFFFFFFFFFFFFFFFFFFFFFFFFFFFFFFFFFFFFFFF000000000000000000000000 DUP1 SWAP3 PUSH1 0x60 SHL AND DUP5 MSTORE PUSH1 0x60 SHL AND PUSH1 0x34 DUP3 ADD MSTORE PUSH1 0x28 DUP2 MSTORE PUSH2 0x2B99 DUP2 PUSH2 0x2678 JUMP JUMPDEST MLOAD SWAP1 KECCAK256 PUSH2 0x2C0B PUSH1 0x40 MLOAD SWAP4 DUP5 SWAP3 PUSH1 0x20 DUP5 ADD SWAP7 DUP8 SWAP2 PUSH32 0xFFFFFFFFFFFFFFFFFFFFFFFFFFFFFFFFFFFFFFFF000000000000000000000000 PUSH1 0x55 SWAP5 SWAP3 PUSH32 0xFF00000000000000000000000000000000000000000000000000000000000000 DUP6 MSTORE PUSH1 0x60 SHL AND PUSH1 0x1 DUP5 ADD MSTORE PUSH1 0x15 DUP4 ADD MSTORE PUSH1 0x35 DUP3 ADD MSTORE ADD SWAP1 JUMP JUMPDEST SUB PUSH32 0xFFFFFFFFFFFFFFFFFFFFFFFFFFFFFFFFFFFFFFFFFFFFFFFFFFFFFFFFFFFFFFE0 DUP2 ADD DUP4 MSTORE DUP3 PUSH2 0x2694 JUMP JUMPDEST MLOAD SWAP1 KECCAK256 AND SWAP1 JUMP JUMPDEST PUSH20 0xFFFFFFFFFFFFFFFFFFFFFFFFFFFFFFFFFFFFFFFF DUP3 DUP2 AND SWAP1 DUP3 AND LT ISZERO PUSH2 0x2C62 JUMPI SWAP2 JUMP JUMPDEST SWAP1 SWAP2 JUMP JUMPDEST MLOAD SWAP1 PUSH14 0xFFFFFFFFFFFFFFFFFFFFFFFFFFFF DUP3 AND DUP3 SUB PUSH2 0x4F3 JUMPI JUMP JUMPDEST SWAP1 DUP2 PUSH1 0x60 SWAP2 SUB SLT PUSH2 0x4F3 JUMPI PUSH2 0x2C95 DUP2 PUSH2 0x2C66 JUMP JUMPDEST SWAP2 PUSH1 0x40 PUSH2 0x2CA4 PUSH1 0x20 DUP5 ADD PUSH2 0x2C66 JUMP JUMPDEST SWAP3 ADD MLOAD PUSH4 0xFFFFFFFF DUP2 AND DUP2 SUB PUSH2 0x4F3 JUMPI SWAP1 JUMP JUMPDEST SWAP2 SWAP1 SWAP2 PUSH1 0x2 DUP2 MLOAD LT PUSH2 0x30EF JUMPI DUP1 MLOAD ISZERO PUSH2 0x25AA JUMPI SWAP1 PUSH20 0xFFFFFFFFFFFFFFFFFFFFFFFFFFFFFFFFFFFFFFFF PUSH1 0x20 SWAP3 PUSH2 0x2CF6 DUP3 DUP6 DUP4 ADD MLOAD AND DUP4 PUSH2 0x1350 DUP5 PUSH2 0x2A9B JUMP JUMPDEST POP SWAP4 DUP2 MLOAD SWAP4 PUSH32 0xFFFFFFFFFFFFFFFFFFFFFFFFFFFFFFFFFFFFFFFFFFFFFFFFFFFFFFFFFFFFFFFE PUSH32 0xFFFFFFFFFFFFFFFFFFFFFFFFFFFFFFFFFFFFFFFFFFFFFFFFFFFFFFFFFFFFFFFF DUP7 ADD SWAP6 ADD SWAP2 PUSH1 0x0 SWAP7 JUMPDEST DUP7 DUP9 LT PUSH2 0x2D58 JUMPI POP POP POP POP POP POP POP POP POP JUMP JUMPDEST DUP6 PUSH2 0x2D63 DUP10 DUP8 PUSH2 0x2AAB JUMP JUMPDEST MLOAD AND SWAP3 DUP7 DUP1 PUSH2 0x2D75 PUSH1 0x1 DUP13 ADD DUP10 PUSH2 0x2AAB JUMP JUMPDEST MLOAD AND SWAP2 AND SWAP2 PUSH1 0x40 SWAP2 DUP3 MLOAD SWAP6 PUSH32 0x902F1AC00000000000000000000000000000000000000000000000000000000 DUP8 MSTORE PUSH1 0x60 SWAP3 PUSH1 0x4 SWAP4 DUP1 DUP10 DUP7 DUP2 DUP11 GAS STATICCALL SWAP9 DUP10 ISZERO PUSH2 0x1CE6 JUMPI SWAP1 DUP13 SWAP2 PUSH1 0x0 SWAP2 DUP3 SWAP12 PUSH2 0x30C4 JUMPI JUMPDEST POP POP SWAP2 AND DUP3 EQ SWAP8 DUP8 SWAP5 SWAP4 SWAP3 SWAP2 PUSH14 0xFFFFFFFFFFFFFFFFFFFFFFFFFFFF SWAP2 DUP3 AND SWAP2 AND DUP10 ISZERO PUSH2 0x30BE JUMPI JUMPDEST DUP7 MLOAD SWAP6 DUP7 DUP1 SWAP5 PUSH32 0x70A0823100000000000000000000000000000000000000000000000000000000 DUP3 MSTORE DUP11 DUP9 DUP4 ADD MSTORE PUSH1 0x24 SWAP9 DUP10 SWAP2 GAS STATICCALL SWAP3 DUP4 ISZERO PUSH2 0x30B3 JUMPI PUSH1 0x0 SWAP4 PUSH2 0x3084 JUMPI JUMPDEST POP DUP1 DUP4 SUB SWAP2 DUP2 ISZERO SWAP4 DUP5 DUP1 ISZERO PUSH2 0x307C JUMPI JUMPDEST PUSH2 0x3054 JUMPI DUP3 PUSH2 0x3E5 DUP1 DUP7 MUL SWAP6 DUP7 DIV EQ SWAP2 EQ OR ISZERO PUSH2 0x3027 JUMPI PUSH2 0x2E60 SWAP1 DUP4 PUSH2 0x2999 JUMP JUMPDEST SWAP3 PUSH2 0x3E8 DUP1 DUP4 MUL SWAP3 DUP4 DIV EQ OR ISZERO PUSH2 0x2FFA JUMPI SWAP2 PUSH2 0x2E85 DUP16 SWAP8 SWAP7 SWAP6 SWAP5 SWAP4 SWAP3 PUSH2 0x2E8B SWAP4 PUSH2 0x3119 JUMP JUMPDEST SWAP1 PUSH2 0x29AC JUMP JUMPDEST SWAP8 ISZERO PUSH2 0x2FF0 JUMPI DUP11 DUP11 PUSH1 0x0 SWAP10 SWAP7 JUMPDEST DUP12 DUP2 LT ISZERO PUSH2 0x2FE3 JUMPI SWAP2 PUSH2 0x1350 PUSH2 0x2F01 SWAP10 SWAP5 SWAP3 PUSH1 0x2 PUSH2 0x2EB7 SWAP6 ADD SWAP1 PUSH2 0x2AAB JUMP JUMPDEST DUP2 SWAP8 SWAP2 PUSH32 0x0 PUSH32 0x0 PUSH2 0x2B36 JUMP JUMPDEST SWAP6 JUMPDEST DUP5 MLOAD SWAP1 SWAP9 PUSH8 0xFFFFFFFFFFFFFFFF SWAP3 DUP10 DUP4 ADD DUP5 DUP2 GT DUP5 DUP3 LT OR PUSH2 0x2FB6 JUMPI DUP8 MSTORE PUSH1 0x0 DUP4 MSTORE DUP1 EXTCODESIZE ISZERO PUSH2 0x4F3 JUMPI DUP14 SWAP8 PUSH1 0x0 DUP11 SWAP4 PUSH2 0x2F82 DUP3 SWAP7 DUP12 MLOAD SWAP13 DUP14 SWAP8 DUP9 SWAP7 DUP8 SWAP6 PUSH32 0x22C0D9F00000000000000000000000000000000000000000000000000000000 DUP8 MSTORE DUP14 DUP8 ADD MSTORE DUP14 DUP7 ADD MSTORE AND PUSH1 0x44 DUP5 ADD MSTORE PUSH1 0x80 PUSH1 0x64 DUP5 ADD MSTORE PUSH1 0x84 DUP4 ADD SWAP1 PUSH2 0x529 JUMP JUMPDEST SUB SWAP3 GAS CALL DUP1 ISZERO PUSH2 0x14E2 JUMPI PUSH2 0x2FA2 JUMPI JUMPDEST POP POP POP POP POP PUSH1 0x1 SWAP1 SWAP8 ADD SWAP7 SWAP2 PUSH2 0x2D46 JUMP JUMPDEST DUP5 GT PUSH2 0x228A JUMPI POP POP MSTORE PUSH1 0x1 CODESIZE DUP1 DUP1 DUP1 PUSH2 0x2F91 JUMP JUMPDEST DUP7 PUSH1 0x41 DUP8 PUSH32 0x4E487B7100000000000000000000000000000000000000000000000000000000 PUSH1 0x0 MSTORE MSTORE PUSH1 0x0 REVERT JUMPDEST POP POP POP POP DUP13 SWAP5 PUSH1 0x0 PUSH2 0x2F03 JUMP JUMPDEST DUP11 DUP11 PUSH1 0x0 SWAP7 PUSH2 0x2E98 JUMP JUMPDEST DUP6 PUSH1 0x11 DUP7 PUSH32 0x4E487B7100000000000000000000000000000000000000000000000000000000 PUSH1 0x0 MSTORE MSTORE PUSH1 0x0 REVERT JUMPDEST DUP7 PUSH1 0x11 DUP8 PUSH32 0x4E487B7100000000000000000000000000000000000000000000000000000000 PUSH1 0x0 MSTORE MSTORE PUSH1 0x0 REVERT JUMPDEST DUP7 DUP10 MLOAD PUSH32 0x7B9C891600000000000000000000000000000000000000000000000000000000 DUP2 MSTORE REVERT JUMPDEST POP DUP2 ISZERO PUSH2 0x2E3F JUMP JUMPDEST SWAP1 SWAP3 DUP10 DUP3 DUP2 RETURNDATASIZE DUP4 GT PUSH2 0x30AC JUMPI JUMPDEST PUSH2 0x309B DUP2 DUP4 PUSH2 0x2694 JUMP JUMPDEST DUP2 ADD SUB SLT PUSH2 0x9D5 JUMPI POP MLOAD SWAP2 CODESIZE PUSH2 0x2E2F JUMP JUMPDEST POP RETURNDATASIZE PUSH2 0x3091 JUMP JUMPDEST DUP8 MLOAD RETURNDATASIZE PUSH1 0x0 DUP3 RETURNDATACOPY RETURNDATASIZE SWAP1 REVERT JUMPDEST SWAP1 PUSH2 0x2DEB JUMP JUMPDEST DUP11 SWAP8 SWAP7 SWAP6 SWAP5 SWAP4 SWAP12 POP PUSH2 0x30E2 SWAP3 POP DUP1 RETURNDATASIZE LT PUSH2 0x1963 JUMPI PUSH2 0x1952 DUP2 DUP4 PUSH2 0x2694 JUMP JUMPDEST POP SWAP10 SWAP2 SWAP3 SWAP4 SWAP5 SWAP6 CODESIZE PUSH2 0x2DC4 JUMP JUMPDEST PUSH1 0x4 PUSH1 0x40 MLOAD PUSH32 0xAE52AD0C00000000000000000000000000000000000000000000000000000000 DUP2 MSTORE REVERT JUMPDEST SWAP2 SWAP1 DUP3 ADD DUP1 SWAP3 GT PUSH2 0x152E JUMPI JUMP JUMPDEST SWAP2 DUP3 CALLDATALOAD DUP4 ADD SWAP2 PUSH2 0x3140 PUSH1 0x20 DUP5 CALLDATALOAD SWAP6 DUP2 DUP7 ADD SWAP6 SUB ADD DUP6 PUSH2 0x3119 JUMP JUMPDEST GT PUSH2 0xACD JUMPI JUMP JUMPDEST SWAP2 PUSH1 0x60 DUP4 ADD CALLDATALOAD DUP4 ADD SWAP2 PUSH2 0x3140 PUSH1 0x20 DUP5 CALLDATALOAD SWAP6 DUP2 DUP7 ADD SWAP6 SUB ADD DUP6 PUSH2 0x3119 JUMP JUMPDEST PUSH32 0x8000000000000000000000000000000000000000000000000000000000000000 DUP2 EQ PUSH2 0x152E JUMPI PUSH1 0x0 SUB SWAP1 JUMP JUMPDEST SWAP4 SWAP2 SWAP4 PUSH1 0x2B DUP5 LT PUSH2 0xACD JUMPI DUP5 PUSH3 0xFFFFFF PUSH1 0x0 PUSH2 0x3216 SWAP5 PUSH2 0x329D PUSH2 0x3248 SWAP10 CALLDATALOAD SWAP9 DUP10 PUSH1 0x60 SHR SWAP11 DUP12 SWAP11 PUSH2 0x31EA PUSH1 0x17 DUP10 ADD CALLDATALOAD PUSH1 0x60 SHR SWAP14 DUP15 LT SWAP13 PUSH20 0xFFFFFFFFFFFFFFFFFFFFFFFFFFFFFFFFFFFFFFFF SWAP15 DUP16 SWAP10 DUP11 SWAP5 PUSH1 0x48 SHR AND SWAP2 PUSH2 0x3314 JUMP JUMPDEST AND SWAP7 DUP12 DUP7 EQ PUSH2 0x32F9 JUMPI PUSH5 0x1000276A4 SWAP11 JUMPDEST PUSH1 0x40 SWAP14 DUP15 SWAP12 DUP13 SWAP4 DUP5 MLOAD SWAP7 DUP8 SWAP6 PUSH1 0x20 DUP8 ADD MSTORE PUSH1 0x60 DUP7 ADD SWAP2 PUSH2 0x2609 JUMP JUMPDEST SWAP2 AND DUP12 DUP4 ADD MSTORE SUB PUSH32 0xFFFFFFFFFFFFFFFFFFFFFFFFFFFFFFFFFFFFFFFFFFFFFFFFFFFFFFFFFFFFFFE0 DUP2 ADD DUP4 MSTORE DUP3 PUSH2 0x2694 JUMP JUMPDEST DUP5 DUP9 MLOAD SWAP10 DUP11 SWAP9 DUP10 SWAP8 DUP9 SWAP7 PUSH32 0x128ACB0800000000000000000000000000000000000000000000000000000000 DUP9 MSTORE AND PUSH1 0x4 DUP8 ADD MSTORE DUP13 PUSH1 0x24 DUP8 ADD MSTORE PUSH1 0x44 DUP7 ADD MSTORE AND PUSH1 0x64 DUP5 ADD MSTORE PUSH1 0xA0 PUSH1 0x84 DUP5 ADD MSTORE PUSH1 0xA4 DUP4 ADD SWAP1 PUSH2 0x529 JUMP JUMPDEST SUB SWAP3 GAS CALL SWAP1 DUP2 ISZERO PUSH2 0x32EE JUMPI PUSH1 0x0 SWAP4 DUP5 SWAP3 PUSH2 0x32B8 JUMPI JUMPDEST POP POP SWAP2 SWAP3 JUMP JUMPDEST SWAP1 DUP1 SWAP5 SWAP3 POP DUP2 RETURNDATASIZE DUP4 GT PUSH2 0x32E7 JUMPI JUMPDEST PUSH2 0x32D0 DUP2 DUP4 PUSH2 0x2694 JUMP JUMPDEST DUP2 ADD SUB SLT PUSH2 0x9D5 JUMPI POP PUSH1 0x20 DUP3 MLOAD SWAP3 ADD MLOAD CODESIZE DUP1 PUSH2 0x32B2 JUMP JUMPDEST POP RETURNDATASIZE PUSH2 0x32C6 JUMP JUMPDEST DUP4 MLOAD RETURNDATASIZE PUSH1 0x0 DUP3 RETURNDATACOPY RETURNDATASIZE SWAP1 REVERT JUMPDEST PUSH20 0xFFFD8963EFD1FC6A506488495D951D5263988D25 SWAP11 PUSH2 0x31FB JUMP JUMPDEST PUSH20 0xFFFFFFFFFFFFFFFFFFFFFFFFFFFFFFFFFFFFFFFF SWAP3 DUP4 DUP4 AND DUP5 DUP4 AND GT PUSH2 0x3478 JUMPI JUMPDEST PUSH3 0xFFFFFF SWAP1 DUP5 PUSH1 0x40 MLOAD SWAP5 DUP2 PUSH1 0x20 DUP8 ADD SWAP6 AND DUP6 MSTORE AND PUSH1 0x40 DUP6 ADD MSTORE AND PUSH1 0x60 DUP4 ADD MSTORE PUSH1 0x60 DUP3 MSTORE PUSH1 0x80 DUP3 ADD SWAP1 DUP3 DUP3 LT PUSH8 0xFFFFFFFFFFFFFFFF DUP4 GT OR PUSH2 0x9EC JUMPI PUSH32 0xFFFFFFFFFFFFFFFFFFFFFFFFFFFFFFFFFFFFFFFFFFFFFFFFFFFFFFFFFFFFFF80 PUSH2 0x2C37 SWAP2 DUP4 PUSH1 0x40 MSTORE DUP5 MLOAD SWAP1 KECCAK256 SWAP4 PUSH2 0x344B PUSH1 0xA0 DUP3 ADD SWAP6 PUSH32 0x0 SWAP1 PUSH32 0x0 DUP9 SWAP2 PUSH32 0xFFFFFFFFFFFFFFFFFFFFFFFFFFFFFFFFFFFFFFFF000000000000000000000000 PUSH1 0x55 SWAP5 SWAP3 PUSH32 0xFF00000000000000000000000000000000000000000000000000000000000000 DUP6 MSTORE PUSH1 0x60 SHL AND PUSH1 0x1 DUP5 ADD MSTORE PUSH1 0x15 DUP4 ADD MSTORE PUSH1 0x35 DUP3 ADD MSTORE ADD SWAP1 JUMP JUMPDEST SUB PUSH32 0xFFFFFFFFFFFFFFFFFFFFFFFFFFFFFFFFFFFFFFFFFFFFFFFFFFFFFFFFFFFFFF60 DUP2 ADD DUP5 MSTORE ADD DUP3 PUSH2 0x2694 JUMP JUMPDEST SWAP1 SWAP2 SWAP1 PUSH2 0x3336 JUMP JUMPDEST PUSH1 0x0 DUP1 DUP1 SWAP4 DUP2 SWAP4 GAS CALL ISZERO PUSH2 0x3490 JUMPI JUMP JUMPDEST PUSH1 0x64 PUSH1 0x40 MLOAD PUSH32 0x8C379A000000000000000000000000000000000000000000000000000000000 DUP2 MSTORE PUSH1 0x20 PUSH1 0x4 DUP3 ADD MSTORE PUSH1 0x13 PUSH1 0x24 DUP3 ADD MSTORE PUSH32 0x4554485F5452414E534645525F4641494C454400000000000000000000000000 PUSH1 0x44 DUP3 ADD MSTORE REVERT JUMPDEST PUSH1 0x0 SWAP2 DUP3 PUSH1 0x44 SWAP3 PUSH1 0x20 SWAP6 PUSH1 0x40 MLOAD SWAP4 PUSH32 0xA9059CBB00000000000000000000000000000000000000000000000000000000 DUP6 MSTORE PUSH1 0x4 DUP6 ADD MSTORE PUSH1 0x24 DUP5 ADD MSTORE GAS CALL RETURNDATASIZE ISZERO PUSH1 0x1F RETURNDATASIZE GT PUSH1 0x1 PUSH1 0x0 MLOAD EQ AND OR AND ISZERO PUSH2 0x3541 JUMPI JUMP JUMPDEST PUSH1 0x64 PUSH1 0x40 MLOAD PUSH32 0x8C379A000000000000000000000000000000000000000000000000000000000 DUP2 MSTORE PUSH1 0x20 PUSH1 0x4 DUP3 ADD MSTORE PUSH1 0xF PUSH1 0x24 DUP3 ADD MSTORE PUSH32 0x5452414E534645525F4641494C45440000000000000000000000000000000000 PUSH1 0x44 DUP3 ADD MSTORE REVERT INVALID LOG2 PUSH5 0x6970667358 0x22 SLT KECCAK256 PUSH13 0xF4A60FDC5D1CC8F6B091352295 0xB3 0xEB MSIZE 0xAA PUSH18 0xC70869C4C7FC64B3C2CEB304AE64736F6C63 NUMBER STOP ADDMOD GT STOP CALLER "
		}
	},
	"abi": [
		{
			"inputs": [
				{
					"components": [
						{
							"internalType": "address",
							"name": "permit2",
							"type": "address"
						},
						{
							"internalType": "address",
							"name": "weth9",
							"type": "address"
						},
						{
							"internalType": "address",
							"name": "v2Factory",
							"type": "address"
						},
						{
							"internalType": "address",
							"name": "v3Factory",
							"type": "address"
						},
						{
							"internalType": "bytes32",
							"name": "pairInitCodeHash",
							"type": "bytes32"
						},
						{
							"internalType": "bytes32",
							"name": "poolInitCodeHash",
							"type": "bytes32"
						}
					],
					"internalType": "struct RouterParameters",
					"name": "params",
					"type": "tuple"
				}
			],
			"stateMutability": "nonpayable",
			"type": "constructor"
		},
		{
			"inputs": [],
			"name": "BalanceTooLow",
			"type": "error"
		},
		{
			"inputs": [],
			"name": "ContractLocked",
			"type": "error"
		},
		{
			"inputs": [],
			"name": "ETHNotAccepted",
			"type": "error"
		},
		{
			"inputs": [
				{
					"internalType": "uint256",
					"name": "commandIndex",
					"type": "uint256"
				},
				{
					"internalType": "bytes",
					"name": "message",
					"type": "bytes"
				}
			],
			"name": "ExecutionFailed",
			"type": "error"
		},
		{
			"inputs": [],
			"name": "FromAddressIsNotOwner",
			"type": "error"
		},
		{
			"inputs": [],
			"name": "InsufficientETH",
			"type": "error"
		},
		{
			"inputs": [],
			"name": "InsufficientToken",
			"type": "error"
		},
		{
			"inputs": [],
			"name": "InvalidBips",
			"type": "error"
		},
		{
			"inputs": [
				{
					"internalType": "uint256",
					"name": "commandType",
					"type": "uint256"
				}
			],
			"name": "InvalidCommandType",
			"type": "error"
		},
		{
			"inputs": [],
			"name": "InvalidPath",
			"type": "error"
		},
		{
			"inputs": [],
			"name": "InvalidReserves",
			"type": "error"
		},
		{
			"inputs": [],
			"name": "InvalidRouterParameters",
			"type": "error"
		},
		{
			"inputs": [],
			"name": "LengthMismatch",
			"type": "error"
		},
		{
			"inputs": [],
			"name": "ReservedBitSet",
			"type": "error"
		},
		{
			"inputs": [],
			"name": "SliceOutOfBounds",
			"type": "error"
		},
		{
			"inputs": [],
			"name": "TransactionDeadlinePassed",
			"type": "error"
		},
		{
			"inputs": [],
			"name": "UnsafeCast",
			"type": "error"
		},
		{
			"inputs": [],
			"name": "V2InvalidPath",
			"type": "error"
		},
		{
			"inputs": [],
			"name": "V2TooLittleReceived",
			"type": "error"
		},
		{
			"inputs": [],
			"name": "V2TooMuchRequested",
			"type": "error"
		},
		{
			"inputs": [],
			"name": "V3InvalidAmountOut",
			"type": "error"
		},
		{
			"inputs": [],
			"name": "V3InvalidCaller",
			"type": "error"
		},
		{
			"inputs": [],
			"name": "V3InvalidSwap",
			"type": "error"
		},
		{
			"inputs": [],
			"name": "V3TooLittleReceived",
			"type": "error"
		},
		{
			"inputs": [],
			"name": "V3TooMuchRequested",
			"type": "error"
		},
		{
			"inputs": [
				{
					"internalType": "bytes",
					"name": "commands",
					"type": "bytes"
				},
				{
					"internalType": "bytes[]",
					"name": "inputs",
					"type": "bytes[]"
				}
			],
			"name": "execute",
			"outputs": [],
			"stateMutability": "payable",
			"type": "function"
		},
		{
			"inputs": [
				{
					"internalType": "bytes",
					"name": "commands",
					"type": "bytes"
				},
				{
					"internalType": "bytes[]",
					"name": "inputs",
					"type": "bytes[]"
				},
				{
					"internalType": "uint256",
					"name": "deadline",
					"type": "uint256"
				}
			],
			"name": "execute",
			"outputs": [],
			"stateMutability": "payable",
			"type": "function"
		},
		{
			"inputs": [
				{
					"internalType": "int256",
					"name": "amount0Delta",
					"type": "int256"
				},
				{
					"internalType": "int256",
					"name": "amount1Delta",
					"type": "int256"
				},
				{
					"internalType": "bytes",
					"name": "data",
					"type": "bytes"
				}
			],
			"name": "uniswapV3SwapCallback",
			"outputs": [],
			"stateMutability": "nonpayable",
			"type": "function"
		},
		{
			"stateMutability": "payable",
			"type": "receive"
		}
	]
}